{"abi":[{"inputs":[{"internalType":"uint256","name":"minimum","type":"uint256"},{"internalType":"address","name":"creator","type":"address"}],"stateMutability":"nonpayable","type":"constructor"},{"inputs":[{"internalType":"uint256","name":"index","type":"uint256"}],"name":"approveRequest","outputs":[],"stateMutability":"nonpayable","type":"function"},{"inputs":[{"internalType":"address","name":"","type":"address"}],"name":"approvers","outputs":[{"internalType":"bool","name":"","type":"bool"}],"stateMutability":"view","type":"function"},{"inputs":[],"name":"contribute","outputs":[],"stateMutability":"payable","type":"function"},{"inputs":[{"internalType":"string","name":"description","type":"string"},{"internalType":"uint256","name":"value","type":"uint256"},{"internalType":"address payable","name":"recipient","type":"address"}],"name":"createRequest","outputs":[],"stateMutability":"nonpayable","type":"function"},{"inputs":[{"internalType":"uint256","name":"index","type":"uint256"}],"name":"finalizeRequest","outputs":[],"stateMutability":"nonpayable","type":"function"},{"inputs":[],"name":"manager","outputs":[{"internalType":"address","name":"","type":"address"}],"stateMutability":"view","type":"function"},{"inputs":[],"name":"minimumContribution","outputs":[{"internalType":"uint256","name":"","type":"uint256"}],"stateMutability":"view","type":"function"},{"inputs":[{"internalType":"uint256","name":"","type":"uint256"}],"name":"requests","outputs":[{"internalType":"string","name":"description","type":"string"},{"internalType":"uint256","name":"value","type":"uint256"},{"internalType":"address payable","name":"recipient","type":"address"},{"internalType":"bool","name":"complete","type":"bool"},{"internalType":"uint256","name":"approvalCount","type":"uint256"}],"stateMutability":"view","type":"function"}],"devdoc":{"kind":"dev","methods":{},"version":1},"evm":{"assembly":"    /* \"Campaign.sol\":445:4552  contract Campaign {... */\n  mstore(0x40, 0x80)\n    /* \"Campaign.sol\":1420:1535  constructor(uint minimum, address creator){... */\n  callvalue\n  dup1\n  iszero\n  tag_1\n  jumpi\n  0x00\n  dup1\n  revert\ntag_1:\n  pop\n  mload(0x40)\n  sub(codesize, bytecodeSize)\n  dup1\n  bytecodeSize\n  dup4\n  codecopy\n  dup2\n  dup2\n  add\n  0x40\n  mstore\n  dup2\n  add\n  swap1\n  tag_2\n  swap2\n  swap1\n  tag_3\n  jump\t// in\ntag_2:\n    /* \"Campaign.sol\":1482:1489  creator */\n  dup1\n    /* \"Campaign.sol\":1472:1479  manager */\n  0x00\n  dup1\n    /* \"Campaign.sol\":1472:1489  manager = creator */\n  0x0100\n  exp\n  dup2\n  sload\n  dup2\n  0xffffffffffffffffffffffffffffffffffffffff\n  mul\n  not\n  and\n  swap1\n  dup4\n  0xffffffffffffffffffffffffffffffffffffffff\n  and\n  mul\n  or\n  swap1\n  sstore\n  pop\n    /* \"Campaign.sol\":1521:1528  minimum */\n  dup2\n    /* \"Campaign.sol\":1499:1518  minimumContribution */\n  0x01\n    /* \"Campaign.sol\":1499:1528  minimumContribution = minimum */\n  dup2\n  swap1\n  sstore\n  pop\n    /* \"Campaign.sol\":1420:1535  constructor(uint minimum, address creator){... */\n  pop\n  pop\n    /* \"Campaign.sol\":445:4552  contract Campaign {... */\n  jump(tag_6)\n    /* \"#utility.yul\":88:205   */\ntag_8:\n    /* \"#utility.yul\":197:198   */\n  0x00\n    /* \"#utility.yul\":194:195   */\n  dup1\n    /* \"#utility.yul\":187:199   */\n  revert\n    /* \"#utility.yul\":334:411   */\ntag_10:\n    /* \"#utility.yul\":371:378   */\n  0x00\n    /* \"#utility.yul\":400:405   */\n  dup2\n    /* \"#utility.yul\":389:405   */\n  swap1\n  pop\n    /* \"#utility.yul\":334:411   */\n  swap2\n  swap1\n  pop\n  jump\t// out\n    /* \"#utility.yul\":417:539   */\ntag_11:\n    /* \"#utility.yul\":490:514   */\n  tag_23\n    /* \"#utility.yul\":508:513   */\n  dup2\n    /* \"#utility.yul\":490:514   */\n  tag_10\n  jump\t// in\ntag_23:\n    /* \"#utility.yul\":483:488   */\n  dup2\n    /* \"#utility.yul\":480:515   */\n  eq\n    /* \"#utility.yul\":470:533   */\n  tag_24\n  jumpi\n    /* \"#utility.yul\":529:530   */\n  0x00\n    /* \"#utility.yul\":526:527   */\n  dup1\n    /* \"#utility.yul\":519:531   */\n  revert\n    /* \"#utility.yul\":470:533   */\ntag_24:\n    /* \"#utility.yul\":417:539   */\n  pop\n  jump\t// out\n    /* \"#utility.yul\":545:688   */\ntag_12:\n    /* \"#utility.yul\":602:607   */\n  0x00\n    /* \"#utility.yul\":633:639   */\n  dup2\n    /* \"#utility.yul\":627:640   */\n  mload\n    /* \"#utility.yul\":618:640   */\n  swap1\n  pop\n    /* \"#utility.yul\":649:682   */\n  tag_26\n    /* \"#utility.yul\":676:681   */\n  dup2\n    /* \"#utility.yul\":649:682   */\n  tag_11\n  jump\t// in\ntag_26:\n    /* \"#utility.yul\":545:688   */\n  swap3\n  swap2\n  pop\n  pop\n  jump\t// out\n    /* \"#utility.yul\":694:820   */\ntag_13:\n    /* \"#utility.yul\":731:738   */\n  0x00\n    /* \"#utility.yul\":771:813   */\n  0xffffffffffffffffffffffffffffffffffffffff\n    /* \"#utility.yul\":764:769   */\n  dup3\n    /* \"#utility.yul\":760:814   */\n  and\n    /* \"#utility.yul\":749:814   */\n  swap1\n  pop\n    /* \"#utility.yul\":694:820   */\n  swap2\n  swap1\n  pop\n  jump\t// out\n    /* \"#utility.yul\":826:922   */\ntag_14:\n    /* \"#utility.yul\":863:870   */\n  0x00\n    /* \"#utility.yul\":892:916   */\n  tag_29\n    /* \"#utility.yul\":910:915   */\n  dup3\n    /* \"#utility.yul\":892:916   */\n  tag_13\n  jump\t// in\ntag_29:\n    /* \"#utility.yul\":881:916   */\n  swap1\n  pop\n    /* \"#utility.yul\":826:922   */\n  swap2\n  swap1\n  pop\n  jump\t// out\n    /* \"#utility.yul\":928:1050   */\ntag_15:\n    /* \"#utility.yul\":1001:1025   */\n  tag_31\n    /* \"#utility.yul\":1019:1024   */\n  dup2\n    /* \"#utility.yul\":1001:1025   */\n  tag_14\n  jump\t// in\ntag_31:\n    /* \"#utility.yul\":994:999   */\n  dup2\n    /* \"#utility.yul\":991:1026   */\n  eq\n    /* \"#utility.yul\":981:1044   */\n  tag_32\n  jumpi\n    /* \"#utility.yul\":1040:1041   */\n  0x00\n    /* \"#utility.yul\":1037:1038   */\n  dup1\n    /* \"#utility.yul\":1030:1042   */\n  revert\n    /* \"#utility.yul\":981:1044   */\ntag_32:\n    /* \"#utility.yul\":928:1050   */\n  pop\n  jump\t// out\n    /* \"#utility.yul\":1056:1199   */\ntag_16:\n    /* \"#utility.yul\":1113:1118   */\n  0x00\n    /* \"#utility.yul\":1144:1150   */\n  dup2\n    /* \"#utility.yul\":1138:1151   */\n  mload\n    /* \"#utility.yul\":1129:1151   */\n  swap1\n  pop\n    /* \"#utility.yul\":1160:1193   */\n  tag_34\n    /* \"#utility.yul\":1187:1192   */\n  dup2\n    /* \"#utility.yul\":1160:1193   */\n  tag_15\n  jump\t// in\ntag_34:\n    /* \"#utility.yul\":1056:1199   */\n  swap3\n  swap2\n  pop\n  pop\n  jump\t// out\n    /* \"#utility.yul\":1205:1712   */\ntag_3:\n    /* \"#utility.yul\":1284:1290   */\n  0x00\n    /* \"#utility.yul\":1292:1298   */\n  dup1\n    /* \"#utility.yul\":1341:1343   */\n  0x40\n    /* \"#utility.yul\":1329:1338   */\n  dup4\n    /* \"#utility.yul\":1320:1327   */\n  dup6\n    /* \"#utility.yul\":1316:1339   */\n  sub\n    /* \"#utility.yul\":1312:1344   */\n  slt\n    /* \"#utility.yul\":1309:1428   */\n  iszero\n  tag_36\n  jumpi\n    /* \"#utility.yul\":1347:1426   */\n  tag_37\n  tag_8\n  jump\t// in\ntag_37:\n    /* \"#utility.yul\":1309:1428   */\ntag_36:\n    /* \"#utility.yul\":1467:1468   */\n  0x00\n    /* \"#utility.yul\":1492:1556   */\n  tag_38\n    /* \"#utility.yul\":1548:1555   */\n  dup6\n    /* \"#utility.yul\":1539:1545   */\n  dup3\n    /* \"#utility.yul\":1528:1537   */\n  dup7\n    /* \"#utility.yul\":1524:1546   */\n  add\n    /* \"#utility.yul\":1492:1556   */\n  tag_12\n  jump\t// in\ntag_38:\n    /* \"#utility.yul\":1482:1556   */\n  swap3\n  pop\n    /* \"#utility.yul\":1438:1566   */\n  pop\n    /* \"#utility.yul\":1605:1607   */\n  0x20\n    /* \"#utility.yul\":1631:1695   */\n  tag_39\n    /* \"#utility.yul\":1687:1694   */\n  dup6\n    /* \"#utility.yul\":1678:1684   */\n  dup3\n    /* \"#utility.yul\":1667:1676   */\n  dup7\n    /* \"#utility.yul\":1663:1685   */\n  add\n    /* \"#utility.yul\":1631:1695   */\n  tag_16\n  jump\t// in\ntag_39:\n    /* \"#utility.yul\":1621:1695   */\n  swap2\n  pop\n    /* \"#utility.yul\":1576:1705   */\n  pop\n    /* \"#utility.yul\":1205:1712   */\n  swap3\n  pop\n  swap3\n  swap1\n  pop\n  jump\t// out\n    /* \"Campaign.sol\":445:4552  contract Campaign {... */\ntag_6:\n  dataSize(sub_0)\n  dup1\n  dataOffset(sub_0)\n  0x00\n  codecopy\n  0x00\n  return\nstop\n\nsub_0: assembly {\n        /* \"Campaign.sol\":445:4552  contract Campaign {... */\n      mstore(0x40, 0x80)\n      jumpi(tag_1, lt(calldatasize, 0x04))\n      shr(0xe0, calldataload(0x00))\n      dup1\n      0x8a9cfd55\n      gt\n      tag_10\n      jumpi\n      dup1\n      0x8a9cfd55\n      eq\n      tag_6\n      jumpi\n      dup1\n      0x937e09b1\n      eq\n      tag_7\n      jumpi\n      dup1\n      0xd7bb99ba\n      eq\n      tag_8\n      jumpi\n      dup1\n      0xd7d1bbdb\n      eq\n      tag_9\n      jumpi\n      jump(tag_1)\n    tag_10:\n      dup1\n      0x03441006\n      eq\n      tag_2\n      jumpi\n      dup1\n      0x0a144391\n      eq\n      tag_3\n      jumpi\n      dup1\n      0x481c6a75\n      eq\n      tag_4\n      jumpi\n      dup1\n      0x81d12c58\n      eq\n      tag_5\n      jumpi\n    tag_1:\n      0x00\n      dup1\n      revert\n        /* \"Campaign.sol\":4179:4550  function finalizeRequest(uint index) public restricted{... */\n    tag_2:\n      callvalue\n      dup1\n      iszero\n      tag_11\n      jumpi\n      0x00\n      dup1\n      revert\n    tag_11:\n      pop\n      tag_12\n      0x04\n      dup1\n      calldatasize\n      sub\n      dup2\n      add\n      swap1\n      tag_13\n      swap2\n      swap1\n      tag_14\n      jump\t// in\n    tag_13:\n      tag_15\n      jump\t// in\n    tag_12:\n      stop\n        /* \"Campaign.sol\":1249:1290  mapping(address => bool) public approvers */\n    tag_3:\n      callvalue\n      dup1\n      iszero\n      tag_16\n      jumpi\n      0x00\n      dup1\n      revert\n    tag_16:\n      pop\n      tag_17\n      0x04\n      dup1\n      calldatasize\n      sub\n      dup2\n      add\n      swap1\n      tag_18\n      swap2\n      swap1\n      tag_19\n      jump\t// in\n    tag_18:\n      tag_20\n      jump\t// in\n    tag_17:\n      mload(0x40)\n      tag_21\n      swap2\n      swap1\n      tag_22\n      jump\t// in\n    tag_21:\n      mload(0x40)\n      dup1\n      swap2\n      sub\n      swap1\n      return\n        /* \"Campaign.sol\":760:782  address public manager */\n    tag_4:\n      callvalue\n      dup1\n      iszero\n      tag_23\n      jumpi\n      0x00\n      dup1\n      revert\n    tag_23:\n      pop\n      tag_24\n      tag_25\n      jump\t// in\n    tag_24:\n      mload(0x40)\n      tag_26\n      swap2\n      swap1\n      tag_27\n      jump\t// in\n    tag_26:\n      mload(0x40)\n      dup1\n      swap2\n      sub\n      swap1\n      return\n        /* \"Campaign.sol\":872:912  mapping(uint => Request) public requests */\n    tag_5:\n      callvalue\n      dup1\n      iszero\n      tag_28\n      jumpi\n      0x00\n      dup1\n      revert\n    tag_28:\n      pop\n      tag_29\n      0x04\n      dup1\n      calldatasize\n      sub\n      dup2\n      add\n      swap1\n      tag_30\n      swap2\n      swap1\n      tag_14\n      jump\t// in\n    tag_30:\n      tag_31\n      jump\t// in\n    tag_29:\n      mload(0x40)\n      tag_32\n      swap6\n      swap5\n      swap4\n      swap3\n      swap2\n      swap1\n      tag_33\n      jump\t// in\n    tag_32:\n      mload(0x40)\n      dup1\n      swap2\n      sub\n      swap1\n      return\n        /* \"Campaign.sol\":3025:3781  function createRequest(string memory description, uint value, address payable recipient) public restricted{... */\n    tag_6:\n      callvalue\n      dup1\n      iszero\n      tag_34\n      jumpi\n      0x00\n      dup1\n      revert\n    tag_34:\n      pop\n      tag_35\n      0x04\n      dup1\n      calldatasize\n      sub\n      dup2\n      add\n      swap1\n      tag_36\n      swap2\n      swap1\n      tag_37\n      jump\t// in\n    tag_36:\n      tag_38\n      jump\t// in\n    tag_35:\n      stop\n        /* \"Campaign.sol\":788:819  uint public minimumContribution */\n    tag_7:\n      callvalue\n      dup1\n      iszero\n      tag_39\n      jumpi\n      0x00\n      dup1\n      revert\n    tag_39:\n      pop\n      tag_40\n      tag_41\n      jump\t// in\n    tag_40:\n      mload(0x40)\n      tag_42\n      swap2\n      swap1\n      tag_43\n      jump\t// in\n    tag_42:\n      mload(0x40)\n      dup1\n      swap2\n      sub\n      swap1\n      return\n        /* \"Campaign.sol\":1738:1896  function contribute() public payable {... */\n    tag_8:\n      tag_44\n      tag_45\n      jump\t// in\n    tag_44:\n      stop\n        /* \"Campaign.sol\":3787:4169  function approveRequest(uint index) public {... */\n    tag_9:\n      callvalue\n      dup1\n      iszero\n      tag_46\n      jumpi\n      0x00\n      dup1\n      revert\n    tag_46:\n      pop\n      tag_47\n      0x04\n      dup1\n      calldatasize\n      sub\n      dup2\n      add\n      swap1\n      tag_48\n      swap2\n      swap1\n      tag_14\n      jump\t// in\n    tag_48:\n      tag_49\n      jump\t// in\n    tag_47:\n      stop\n        /* \"Campaign.sol\":4179:4550  function finalizeRequest(uint index) public restricted{... */\n    tag_15:\n        /* \"Campaign.sol\":1368:1375  manager */\n      0x00\n      dup1\n      sload\n      swap1\n      0x0100\n      exp\n      swap1\n      div\n      0xffffffffffffffffffffffffffffffffffffffff\n      and\n        /* \"Campaign.sol\":1354:1375  msg.sender == manager */\n      0xffffffffffffffffffffffffffffffffffffffff\n      and\n        /* \"Campaign.sol\":1354:1364  msg.sender */\n      caller\n        /* \"Campaign.sol\":1354:1375  msg.sender == manager */\n      0xffffffffffffffffffffffffffffffffffffffff\n      and\n      eq\n        /* \"Campaign.sol\":1346:1376  require(msg.sender == manager) */\n      tag_51\n      jumpi\n      0x00\n      dup1\n      revert\n    tag_51:\n        /* \"Campaign.sol\":4243:4266  Request storage request */\n      0x00\n        /* \"Campaign.sol\":4269:4277  requests */\n      0x04\n        /* \"Campaign.sol\":4269:4284  requests[index] */\n      0x00\n        /* \"Campaign.sol\":4278:4283  index */\n      dup4\n        /* \"Campaign.sol\":4269:4284  requests[index] */\n      dup2\n      mstore\n      0x20\n      add\n      swap1\n      dup2\n      mstore\n      0x20\n      add\n      0x00\n      keccak256\n        /* \"Campaign.sol\":4243:4284  Request storage request = requests[index] */\n      swap1\n      pop\n        /* \"Campaign.sol\":4418:4419  2 */\n      0x02\n        /* \"Campaign.sol\":4401:4415  approversCount */\n      sload(0x03)\n        /* \"Campaign.sol\":4401:4419  approversCount / 2 */\n      tag_53\n      swap2\n      swap1\n      tag_54\n      jump\t// in\n    tag_53:\n        /* \"Campaign.sol\":4376:4383  request */\n      dup2\n        /* \"Campaign.sol\":4376:4397  request.approvalCount */\n      0x03\n      add\n      sload\n        /* \"Campaign.sol\":4376:4420  request.approvalCount > (approversCount / 2) */\n      gt\n        /* \"Campaign.sol\":4368:4421  require(request.approvalCount > (approversCount / 2)) */\n      tag_55\n      jumpi\n      0x00\n      dup1\n      revert\n    tag_55:\n        /* \"Campaign.sol\":4441:4448  request */\n      dup1\n        /* \"Campaign.sol\":4441:4457  request.complete */\n      0x02\n      add\n      0x14\n      swap1\n      sload\n      swap1\n      0x0100\n      exp\n      swap1\n      div\n      0xff\n      and\n        /* \"Campaign.sol\":4440:4457  !request.complete */\n      iszero\n        /* \"Campaign.sol\":4432:4458  require(!request.complete) */\n      tag_56\n      jumpi\n      0x00\n      dup1\n      revert\n    tag_56:\n        /* \"Campaign.sol\":4488:4492  true */\n      0x01\n        /* \"Campaign.sol\":4469:4476  request */\n      dup2\n        /* \"Campaign.sol\":4469:4485  request.complete */\n      0x02\n      add\n      0x14\n        /* \"Campaign.sol\":4469:4492  request.complete = true */\n      0x0100\n      exp\n      dup2\n      sload\n      dup2\n      0xff\n      mul\n      not\n      and\n      swap1\n      dup4\n      iszero\n      iszero\n      mul\n      or\n      swap1\n      sstore\n      pop\n        /* \"Campaign.sol\":4502:4509  request */\n      dup1\n        /* \"Campaign.sol\":4502:4519  request.recipient */\n      0x02\n      add\n      0x00\n      swap1\n      sload\n      swap1\n      0x0100\n      exp\n      swap1\n      div\n      0xffffffffffffffffffffffffffffffffffffffff\n      and\n        /* \"Campaign.sol\":4502:4528  request.recipient.transfer */\n      0xffffffffffffffffffffffffffffffffffffffff\n      and\n        /* \"Campaign.sol\":4502:4543  request.recipient.transfer(request.value) */\n      0x08fc\n        /* \"Campaign.sol\":4529:4536  request */\n      dup3\n        /* \"Campaign.sol\":4529:4542  request.value */\n      0x01\n      add\n      sload\n        /* \"Campaign.sol\":4502:4543  request.recipient.transfer(request.value) */\n      swap1\n      dup2\n      iszero\n      mul\n      swap1\n      mload(0x40)\n      0x00\n      mload(0x40)\n      dup1\n      dup4\n      sub\n      dup2\n      dup6\n      dup9\n      dup9\n      call\n      swap4\n      pop\n      pop\n      pop\n      pop\n      iszero\n      dup1\n      iszero\n      tag_58\n      jumpi\n      returndatasize\n      0x00\n      dup1\n      returndatacopy\n      revert(0x00, returndatasize)\n    tag_58:\n      pop\n        /* \"Campaign.sol\":4233:4550  {... */\n      pop\n        /* \"Campaign.sol\":4179:4550  function finalizeRequest(uint index) public restricted{... */\n      pop\n      jump\t// out\n        /* \"Campaign.sol\":1249:1290  mapping(address => bool) public approvers */\n    tag_20:\n      mstore(0x20, 0x05)\n      dup1\n      0x00\n      mstore\n      keccak256(0x00, 0x40)\n      0x00\n      swap2\n      pop\n      sload\n      swap1\n      0x0100\n      exp\n      swap1\n      div\n      0xff\n      and\n      dup2\n      jump\t// out\n        /* \"Campaign.sol\":760:782  address public manager */\n    tag_25:\n      0x00\n      dup1\n      sload\n      swap1\n      0x0100\n      exp\n      swap1\n      div\n      0xffffffffffffffffffffffffffffffffffffffff\n      and\n      dup2\n      jump\t// out\n        /* \"Campaign.sol\":872:912  mapping(uint => Request) public requests */\n    tag_31:\n      mstore(0x20, 0x04)\n      dup1\n      0x00\n      mstore\n      keccak256(0x00, 0x40)\n      0x00\n      swap2\n      pop\n      swap1\n      pop\n      dup1\n      0x00\n      add\n      dup1\n      sload\n      tag_59\n      swap1\n      tag_60\n      jump\t// in\n    tag_59:\n      dup1\n      0x1f\n      add\n      0x20\n      dup1\n      swap2\n      div\n      mul\n      0x20\n      add\n      mload(0x40)\n      swap1\n      dup2\n      add\n      0x40\n      mstore\n      dup1\n      swap3\n      swap2\n      swap1\n      dup2\n      dup2\n      mstore\n      0x20\n      add\n      dup3\n      dup1\n      sload\n      tag_61\n      swap1\n      tag_60\n      jump\t// in\n    tag_61:\n      dup1\n      iszero\n      tag_62\n      jumpi\n      dup1\n      0x1f\n      lt\n      tag_63\n      jumpi\n      0x0100\n      dup1\n      dup4\n      sload\n      div\n      mul\n      dup4\n      mstore\n      swap2\n      0x20\n      add\n      swap2\n      jump(tag_62)\n    tag_63:\n      dup3\n      add\n      swap2\n      swap1\n      0x00\n      mstore\n      keccak256(0x00, 0x20)\n      swap1\n    tag_64:\n      dup2\n      sload\n      dup2\n      mstore\n      swap1\n      0x01\n      add\n      swap1\n      0x20\n      add\n      dup1\n      dup4\n      gt\n      tag_64\n      jumpi\n      dup3\n      swap1\n      sub\n      0x1f\n      and\n      dup3\n      add\n      swap2\n    tag_62:\n      pop\n      pop\n      pop\n      pop\n      pop\n      swap1\n      dup1\n      0x01\n      add\n      sload\n      swap1\n      dup1\n      0x02\n      add\n      0x00\n      swap1\n      sload\n      swap1\n      0x0100\n      exp\n      swap1\n      div\n      0xffffffffffffffffffffffffffffffffffffffff\n      and\n      swap1\n      dup1\n      0x02\n      add\n      0x14\n      swap1\n      sload\n      swap1\n      0x0100\n      exp\n      swap1\n      div\n      0xff\n      and\n      swap1\n      dup1\n      0x03\n      add\n      sload\n      swap1\n      pop\n      dup6\n      jump\t// out\n        /* \"Campaign.sol\":3025:3781  function createRequest(string memory description, uint value, address payable recipient) public restricted{... */\n    tag_38:\n        /* \"Campaign.sol\":1368:1375  manager */\n      0x00\n      dup1\n      sload\n      swap1\n      0x0100\n      exp\n      swap1\n      div\n      0xffffffffffffffffffffffffffffffffffffffff\n      and\n        /* \"Campaign.sol\":1354:1375  msg.sender == manager */\n      0xffffffffffffffffffffffffffffffffffffffff\n      and\n        /* \"Campaign.sol\":1354:1364  msg.sender */\n      caller\n        /* \"Campaign.sol\":1354:1375  msg.sender == manager */\n      0xffffffffffffffffffffffffffffffffffffffff\n      and\n      eq\n        /* \"Campaign.sol\":1346:1376  require(msg.sender == manager) */\n      tag_66\n      jumpi\n      0x00\n      dup1\n      revert\n    tag_66:\n        /* \"Campaign.sol\":3326:3352  Request storage newRequest */\n      0x00\n        /* \"Campaign.sol\":3355:3363  requests */\n      0x04\n        /* \"Campaign.sol\":3355:3378  requests[numRequests++] */\n      0x00\n        /* \"Campaign.sol\":3364:3375  numRequests */\n      0x02\n      0x00\n        /* \"Campaign.sol\":3364:3377  numRequests++ */\n      dup2\n      sload\n      dup1\n      swap3\n      swap2\n      swap1\n      tag_68\n      swap1\n      tag_69\n      jump\t// in\n    tag_68:\n      swap2\n      swap1\n      pop\n      sstore\n        /* \"Campaign.sol\":3355:3378  requests[numRequests++] */\n      dup2\n      mstore\n      0x20\n      add\n      swap1\n      dup2\n      mstore\n      0x20\n      add\n      0x00\n      keccak256\n        /* \"Campaign.sol\":3326:3378  Request storage newRequest = requests[numRequests++] */\n      swap1\n      pop\n        /* \"Campaign.sol\":3413:3424  description */\n      dup4\n        /* \"Campaign.sol\":3388:3398  newRequest */\n      dup2\n        /* \"Campaign.sol\":3388:3410  newRequest.description */\n      0x00\n      add\n        /* \"Campaign.sol\":3388:3424  newRequest.description = description */\n      swap1\n      dup1\n      mload\n      swap1\n      0x20\n      add\n      swap1\n      tag_70\n      swap3\n      swap2\n      swap1\n      tag_71\n      jump\t// in\n    tag_70:\n      pop\n        /* \"Campaign.sol\":3453:3458  value */\n      dup3\n        /* \"Campaign.sol\":3434:3444  newRequest */\n      dup2\n        /* \"Campaign.sol\":3434:3450  newRequest.value */\n      0x01\n      add\n        /* \"Campaign.sol\":3434:3458  newRequest.value = value */\n      dup2\n      swap1\n      sstore\n      pop\n        /* \"Campaign.sol\":3491:3500  recipient */\n      dup2\n        /* \"Campaign.sol\":3468:3478  newRequest */\n      dup2\n        /* \"Campaign.sol\":3468:3488  newRequest.recipient */\n      0x02\n      add\n      0x00\n        /* \"Campaign.sol\":3468:3500  newRequest.recipient = recipient */\n      0x0100\n      exp\n      dup2\n      sload\n      dup2\n      0xffffffffffffffffffffffffffffffffffffffff\n      mul\n      not\n      and\n      swap1\n      dup4\n      0xffffffffffffffffffffffffffffffffffffffff\n      and\n      mul\n      or\n      swap1\n      sstore\n      pop\n        /* \"Campaign.sol\":3532:3537  false */\n      0x00\n        /* \"Campaign.sol\":3510:3520  newRequest */\n      dup2\n        /* \"Campaign.sol\":3510:3529  newRequest.complete */\n      0x02\n      add\n      0x14\n        /* \"Campaign.sol\":3510:3537  newRequest.complete = false */\n      0x0100\n      exp\n      dup2\n      sload\n      dup2\n      0xff\n      mul\n      not\n      and\n      swap1\n      dup4\n      iszero\n      iszero\n      mul\n      or\n      swap1\n      sstore\n      pop\n        /* \"Campaign.sol\":3574:3575  0 */\n      0x00\n        /* \"Campaign.sol\":3547:3557  newRequest */\n      dup2\n        /* \"Campaign.sol\":3547:3571  newRequest.approvalCount */\n      0x03\n      add\n        /* \"Campaign.sol\":3547:3575  newRequest.approvalCount = 0 */\n      dup2\n      swap1\n      sstore\n      pop\n        /* \"Campaign.sol\":3131:3781  {... */\n      pop\n        /* \"Campaign.sol\":3025:3781  function createRequest(string memory description, uint value, address payable recipient) public restricted{... */\n      pop\n      pop\n      pop\n      jump\t// out\n        /* \"Campaign.sol\":788:819  uint public minimumContribution */\n    tag_41:\n      sload(0x01)\n      dup2\n      jump\t// out\n        /* \"Campaign.sol\":1738:1896  function contribute() public payable {... */\n    tag_45:\n        /* \"Campaign.sol\":1805:1824  minimumContribution */\n      sload(0x01)\n        /* \"Campaign.sol\":1793:1802  msg.value */\n      callvalue\n        /* \"Campaign.sol\":1793:1824  msg.value > minimumContribution */\n      gt\n        /* \"Campaign.sol\":1785:1825  require(msg.value > minimumContribution) */\n      tag_73\n      jumpi\n      0x00\n      dup1\n      revert\n    tag_73:\n        /* \"Campaign.sol\":1859:1863  true */\n      0x01\n        /* \"Campaign.sol\":1835:1844  approvers */\n      0x05\n        /* \"Campaign.sol\":1835:1856  approvers[msg.sender] */\n      0x00\n        /* \"Campaign.sol\":1845:1855  msg.sender */\n      caller\n        /* \"Campaign.sol\":1835:1856  approvers[msg.sender] */\n      0xffffffffffffffffffffffffffffffffffffffff\n      and\n      0xffffffffffffffffffffffffffffffffffffffff\n      and\n      dup2\n      mstore\n      0x20\n      add\n      swap1\n      dup2\n      mstore\n      0x20\n      add\n      0x00\n      keccak256\n      0x00\n        /* \"Campaign.sol\":1835:1863  approvers[msg.sender] = true */\n      0x0100\n      exp\n      dup2\n      sload\n      dup2\n      0xff\n      mul\n      not\n      and\n      swap1\n      dup4\n      iszero\n      iszero\n      mul\n      or\n      swap1\n      sstore\n      pop\n        /* \"Campaign.sol\":1873:1887  approversCount */\n      0x03\n      0x00\n        /* \"Campaign.sol\":1873:1889  approversCount++ */\n      dup2\n      sload\n      dup1\n      swap3\n      swap2\n      swap1\n      tag_74\n      swap1\n      tag_69\n      jump\t// in\n    tag_74:\n      swap2\n      swap1\n      pop\n      sstore\n      pop\n        /* \"Campaign.sol\":1738:1896  function contribute() public payable {... */\n      jump\t// out\n        /* \"Campaign.sol\":3787:4169  function approveRequest(uint index) public {... */\n    tag_49:\n        /* \"Campaign.sol\":3840:3863  Request storage request */\n      0x00\n        /* \"Campaign.sol\":3866:3874  requests */\n      0x04\n        /* \"Campaign.sol\":3866:3881  requests[index] */\n      0x00\n        /* \"Campaign.sol\":3875:3880  index */\n      dup4\n        /* \"Campaign.sol\":3866:3881  requests[index] */\n      dup2\n      mstore\n      0x20\n      add\n      swap1\n      dup2\n      mstore\n      0x20\n      add\n      0x00\n      keccak256\n        /* \"Campaign.sol\":3840:3881  Request storage request = requests[index] */\n      swap1\n      pop\n        /* \"Campaign.sol\":3900:3909  approvers */\n      0x05\n        /* \"Campaign.sol\":3900:3921  approvers[msg.sender] */\n      0x00\n        /* \"Campaign.sol\":3910:3920  msg.sender */\n      caller\n        /* \"Campaign.sol\":3900:3921  approvers[msg.sender] */\n      0xffffffffffffffffffffffffffffffffffffffff\n      and\n      0xffffffffffffffffffffffffffffffffffffffff\n      and\n      dup2\n      mstore\n      0x20\n      add\n      swap1\n      dup2\n      mstore\n      0x20\n      add\n      0x00\n      keccak256\n      0x00\n      swap1\n      sload\n      swap1\n      0x0100\n      exp\n      swap1\n      div\n      0xff\n      and\n        /* \"Campaign.sol\":3892:3922  require(approvers[msg.sender]) */\n      tag_76\n      jumpi\n      0x00\n      dup1\n      revert\n    tag_76:\n        /* \"Campaign.sol\":3989:3996  request */\n      dup1\n        /* \"Campaign.sol\":3989:4006  request.approvals */\n      0x04\n      add\n        /* \"Campaign.sol\":3989:4018  request.approvals[msg.sender] */\n      0x00\n        /* \"Campaign.sol\":4007:4017  msg.sender */\n      caller\n        /* \"Campaign.sol\":3989:4018  request.approvals[msg.sender] */\n      0xffffffffffffffffffffffffffffffffffffffff\n      and\n      0xffffffffffffffffffffffffffffffffffffffff\n      and\n      dup2\n      mstore\n      0x20\n      add\n      swap1\n      dup2\n      mstore\n      0x20\n      add\n      0x00\n      keccak256\n      0x00\n      swap1\n      sload\n      swap1\n      0x0100\n      exp\n      swap1\n      div\n      0xff\n      and\n        /* \"Campaign.sol\":3988:4018  !request.approvals[msg.sender] */\n      iszero\n        /* \"Campaign.sol\":3980:4019  require(!request.approvals[msg.sender]) */\n      tag_77\n      jumpi\n      0x00\n      dup1\n      revert\n    tag_77:\n        /* \"Campaign.sol\":4087:4091  true */\n      0x01\n        /* \"Campaign.sol\":4055:4062  request */\n      dup2\n        /* \"Campaign.sol\":4055:4072  request.approvals */\n      0x04\n      add\n        /* \"Campaign.sol\":4055:4084  request.approvals[msg.sender] */\n      0x00\n        /* \"Campaign.sol\":4073:4083  msg.sender */\n      caller\n        /* \"Campaign.sol\":4055:4084  request.approvals[msg.sender] */\n      0xffffffffffffffffffffffffffffffffffffffff\n      and\n      0xffffffffffffffffffffffffffffffffffffffff\n      and\n      dup2\n      mstore\n      0x20\n      add\n      swap1\n      dup2\n      mstore\n      0x20\n      add\n      0x00\n      keccak256\n      0x00\n        /* \"Campaign.sol\":4055:4091  request.approvals[msg.sender] = true */\n      0x0100\n      exp\n      dup2\n      sload\n      dup2\n      0xff\n      mul\n      not\n      and\n      swap1\n      dup4\n      iszero\n      iszero\n      mul\n      or\n      swap1\n      sstore\n      pop\n        /* \"Campaign.sol\":4117:4124  request */\n      dup1\n        /* \"Campaign.sol\":4117:4138  request.approvalCount */\n      0x03\n      add\n      0x00\n        /* \"Campaign.sol\":4117:4140  request.approvalCount++ */\n      dup2\n      sload\n      dup1\n      swap3\n      swap2\n      swap1\n      tag_78\n      swap1\n      tag_69\n      jump\t// in\n    tag_78:\n      swap2\n      swap1\n      pop\n      sstore\n      pop\n        /* \"Campaign.sol\":3830:4169  {... */\n      pop\n        /* \"Campaign.sol\":3787:4169  function approveRequest(uint index) public {... */\n      pop\n      jump\t// out\n    tag_71:\n      dup3\n      dup1\n      sload\n      tag_79\n      swap1\n      tag_60\n      jump\t// in\n    tag_79:\n      swap1\n      0x00\n      mstore\n      keccak256(0x00, 0x20)\n      swap1\n      0x1f\n      add\n      0x20\n      swap1\n      div\n      dup2\n      add\n      swap3\n      dup3\n      tag_81\n      jumpi\n      0x00\n      dup6\n      sstore\n      jump(tag_80)\n    tag_81:\n      dup3\n      0x1f\n      lt\n      tag_82\n      jumpi\n      dup1\n      mload\n      not(0xff)\n      and\n      dup4\n      dup1\n      add\n      or\n      dup6\n      sstore\n      jump(tag_80)\n    tag_82:\n      dup3\n      dup1\n      add\n      0x01\n      add\n      dup6\n      sstore\n      dup3\n      iszero\n      tag_80\n      jumpi\n      swap2\n      dup3\n      add\n    tag_83:\n      dup3\n      dup2\n      gt\n      iszero\n      tag_84\n      jumpi\n      dup3\n      mload\n      dup3\n      sstore\n      swap2\n      0x20\n      add\n      swap2\n      swap1\n      0x01\n      add\n      swap1\n      jump(tag_83)\n    tag_84:\n    tag_80:\n      pop\n      swap1\n      pop\n      tag_85\n      swap2\n      swap1\n      tag_86\n      jump\t// in\n    tag_85:\n      pop\n      swap1\n      jump\t// out\n    tag_86:\n    tag_87:\n      dup1\n      dup3\n      gt\n      iszero\n      tag_88\n      jumpi\n      0x00\n      dup2\n      0x00\n      swap1\n      sstore\n      pop\n      0x01\n      add\n      jump(tag_87)\n    tag_88:\n      pop\n      swap1\n      jump\t// out\n        /* \"#utility.yul\":7:82   */\n    tag_89:\n        /* \"#utility.yul\":40:46   */\n      0x00\n        /* \"#utility.yul\":73:75   */\n      0x40\n        /* \"#utility.yul\":67:76   */\n      mload\n        /* \"#utility.yul\":57:76   */\n      swap1\n      pop\n        /* \"#utility.yul\":7:82   */\n      swap1\n      jump\t// out\n        /* \"#utility.yul\":88:205   */\n    tag_90:\n        /* \"#utility.yul\":197:198   */\n      0x00\n        /* \"#utility.yul\":194:195   */\n      dup1\n        /* \"#utility.yul\":187:199   */\n      revert\n        /* \"#utility.yul\":211:328   */\n    tag_91:\n        /* \"#utility.yul\":320:321   */\n      0x00\n        /* \"#utility.yul\":317:318   */\n      dup1\n        /* \"#utility.yul\":310:322   */\n      revert\n        /* \"#utility.yul\":334:411   */\n    tag_92:\n        /* \"#utility.yul\":371:378   */\n      0x00\n        /* \"#utility.yul\":400:405   */\n      dup2\n        /* \"#utility.yul\":389:405   */\n      swap1\n      pop\n        /* \"#utility.yul\":334:411   */\n      swap2\n      swap1\n      pop\n      jump\t// out\n        /* \"#utility.yul\":417:539   */\n    tag_93:\n        /* \"#utility.yul\":490:514   */\n      tag_130\n        /* \"#utility.yul\":508:513   */\n      dup2\n        /* \"#utility.yul\":490:514   */\n      tag_92\n      jump\t// in\n    tag_130:\n        /* \"#utility.yul\":483:488   */\n      dup2\n        /* \"#utility.yul\":480:515   */\n      eq\n        /* \"#utility.yul\":470:533   */\n      tag_131\n      jumpi\n        /* \"#utility.yul\":529:530   */\n      0x00\n        /* \"#utility.yul\":526:527   */\n      dup1\n        /* \"#utility.yul\":519:531   */\n      revert\n        /* \"#utility.yul\":470:533   */\n    tag_131:\n        /* \"#utility.yul\":417:539   */\n      pop\n      jump\t// out\n        /* \"#utility.yul\":545:684   */\n    tag_94:\n        /* \"#utility.yul\":591:596   */\n      0x00\n        /* \"#utility.yul\":629:635   */\n      dup2\n        /* \"#utility.yul\":616:636   */\n      calldataload\n        /* \"#utility.yul\":607:636   */\n      swap1\n      pop\n        /* \"#utility.yul\":645:678   */\n      tag_133\n        /* \"#utility.yul\":672:677   */\n      dup2\n        /* \"#utility.yul\":645:678   */\n      tag_93\n      jump\t// in\n    tag_133:\n        /* \"#utility.yul\":545:684   */\n      swap3\n      swap2\n      pop\n      pop\n      jump\t// out\n        /* \"#utility.yul\":690:1019   */\n    tag_14:\n        /* \"#utility.yul\":749:755   */\n      0x00\n        /* \"#utility.yul\":798:800   */\n      0x20\n        /* \"#utility.yul\":786:795   */\n      dup3\n        /* \"#utility.yul\":777:784   */\n      dup5\n        /* \"#utility.yul\":773:796   */\n      sub\n        /* \"#utility.yul\":769:801   */\n      slt\n        /* \"#utility.yul\":766:885   */\n      iszero\n      tag_135\n      jumpi\n        /* \"#utility.yul\":804:883   */\n      tag_136\n      tag_90\n      jump\t// in\n    tag_136:\n        /* \"#utility.yul\":766:885   */\n    tag_135:\n        /* \"#utility.yul\":924:925   */\n      0x00\n        /* \"#utility.yul\":949:1002   */\n      tag_137\n        /* \"#utility.yul\":994:1001   */\n      dup5\n        /* \"#utility.yul\":985:991   */\n      dup3\n        /* \"#utility.yul\":974:983   */\n      dup6\n        /* \"#utility.yul\":970:992   */\n      add\n        /* \"#utility.yul\":949:1002   */\n      tag_94\n      jump\t// in\n    tag_137:\n        /* \"#utility.yul\":939:1002   */\n      swap2\n      pop\n        /* \"#utility.yul\":895:1012   */\n      pop\n        /* \"#utility.yul\":690:1019   */\n      swap3\n      swap2\n      pop\n      pop\n      jump\t// out\n        /* \"#utility.yul\":1025:1151   */\n    tag_95:\n        /* \"#utility.yul\":1062:1069   */\n      0x00\n        /* \"#utility.yul\":1102:1144   */\n      0xffffffffffffffffffffffffffffffffffffffff\n        /* \"#utility.yul\":1095:1100   */\n      dup3\n        /* \"#utility.yul\":1091:1145   */\n      and\n        /* \"#utility.yul\":1080:1145   */\n      swap1\n      pop\n        /* \"#utility.yul\":1025:1151   */\n      swap2\n      swap1\n      pop\n      jump\t// out\n        /* \"#utility.yul\":1157:1253   */\n    tag_96:\n        /* \"#utility.yul\":1194:1201   */\n      0x00\n        /* \"#utility.yul\":1223:1247   */\n      tag_140\n        /* \"#utility.yul\":1241:1246   */\n      dup3\n        /* \"#utility.yul\":1223:1247   */\n      tag_95\n      jump\t// in\n    tag_140:\n        /* \"#utility.yul\":1212:1247   */\n      swap1\n      pop\n        /* \"#utility.yul\":1157:1253   */\n      swap2\n      swap1\n      pop\n      jump\t// out\n        /* \"#utility.yul\":1259:1381   */\n    tag_97:\n        /* \"#utility.yul\":1332:1356   */\n      tag_142\n        /* \"#utility.yul\":1350:1355   */\n      dup2\n        /* \"#utility.yul\":1332:1356   */\n      tag_96\n      jump\t// in\n    tag_142:\n        /* \"#utility.yul\":1325:1330   */\n      dup2\n        /* \"#utility.yul\":1322:1357   */\n      eq\n        /* \"#utility.yul\":1312:1375   */\n      tag_143\n      jumpi\n        /* \"#utility.yul\":1371:1372   */\n      0x00\n        /* \"#utility.yul\":1368:1369   */\n      dup1\n        /* \"#utility.yul\":1361:1373   */\n      revert\n        /* \"#utility.yul\":1312:1375   */\n    tag_143:\n        /* \"#utility.yul\":1259:1381   */\n      pop\n      jump\t// out\n        /* \"#utility.yul\":1387:1526   */\n    tag_98:\n        /* \"#utility.yul\":1433:1438   */\n      0x00\n        /* \"#utility.yul\":1471:1477   */\n      dup2\n        /* \"#utility.yul\":1458:1478   */\n      calldataload\n        /* \"#utility.yul\":1449:1478   */\n      swap1\n      pop\n        /* \"#utility.yul\":1487:1520   */\n      tag_145\n        /* \"#utility.yul\":1514:1519   */\n      dup2\n        /* \"#utility.yul\":1487:1520   */\n      tag_97\n      jump\t// in\n    tag_145:\n        /* \"#utility.yul\":1387:1526   */\n      swap3\n      swap2\n      pop\n      pop\n      jump\t// out\n        /* \"#utility.yul\":1532:1861   */\n    tag_19:\n        /* \"#utility.yul\":1591:1597   */\n      0x00\n        /* \"#utility.yul\":1640:1642   */\n      0x20\n        /* \"#utility.yul\":1628:1637   */\n      dup3\n        /* \"#utility.yul\":1619:1626   */\n      dup5\n        /* \"#utility.yul\":1615:1638   */\n      sub\n        /* \"#utility.yul\":1611:1643   */\n      slt\n        /* \"#utility.yul\":1608:1727   */\n      iszero\n      tag_147\n      jumpi\n        /* \"#utility.yul\":1646:1725   */\n      tag_148\n      tag_90\n      jump\t// in\n    tag_148:\n        /* \"#utility.yul\":1608:1727   */\n    tag_147:\n        /* \"#utility.yul\":1766:1767   */\n      0x00\n        /* \"#utility.yul\":1791:1844   */\n      tag_149\n        /* \"#utility.yul\":1836:1843   */\n      dup5\n        /* \"#utility.yul\":1827:1833   */\n      dup3\n        /* \"#utility.yul\":1816:1825   */\n      dup6\n        /* \"#utility.yul\":1812:1834   */\n      add\n        /* \"#utility.yul\":1791:1844   */\n      tag_98\n      jump\t// in\n    tag_149:\n        /* \"#utility.yul\":1781:1844   */\n      swap2\n      pop\n        /* \"#utility.yul\":1737:1854   */\n      pop\n        /* \"#utility.yul\":1532:1861   */\n      swap3\n      swap2\n      pop\n      pop\n      jump\t// out\n        /* \"#utility.yul\":1867:1957   */\n    tag_99:\n        /* \"#utility.yul\":1901:1908   */\n      0x00\n        /* \"#utility.yul\":1944:1949   */\n      dup2\n        /* \"#utility.yul\":1937:1950   */\n      iszero\n        /* \"#utility.yul\":1930:1951   */\n      iszero\n        /* \"#utility.yul\":1919:1951   */\n      swap1\n      pop\n        /* \"#utility.yul\":1867:1957   */\n      swap2\n      swap1\n      pop\n      jump\t// out\n        /* \"#utility.yul\":1963:2072   */\n    tag_100:\n        /* \"#utility.yul\":2044:2065   */\n      tag_152\n        /* \"#utility.yul\":2059:2064   */\n      dup2\n        /* \"#utility.yul\":2044:2065   */\n      tag_99\n      jump\t// in\n    tag_152:\n        /* \"#utility.yul\":2039:2042   */\n      dup3\n        /* \"#utility.yul\":2032:2066   */\n      mstore\n        /* \"#utility.yul\":1963:2072   */\n      pop\n      pop\n      jump\t// out\n        /* \"#utility.yul\":2078:2288   */\n    tag_22:\n        /* \"#utility.yul\":2165:2169   */\n      0x00\n        /* \"#utility.yul\":2203:2205   */\n      0x20\n        /* \"#utility.yul\":2192:2201   */\n      dup3\n        /* \"#utility.yul\":2188:2206   */\n      add\n        /* \"#utility.yul\":2180:2206   */\n      swap1\n      pop\n        /* \"#utility.yul\":2216:2281   */\n      tag_154\n        /* \"#utility.yul\":2278:2279   */\n      0x00\n        /* \"#utility.yul\":2267:2276   */\n      dup4\n        /* \"#utility.yul\":2263:2280   */\n      add\n        /* \"#utility.yul\":2254:2260   */\n      dup5\n        /* \"#utility.yul\":2216:2281   */\n      tag_100\n      jump\t// in\n    tag_154:\n        /* \"#utility.yul\":2078:2288   */\n      swap3\n      swap2\n      pop\n      pop\n      jump\t// out\n        /* \"#utility.yul\":2294:2412   */\n    tag_101:\n        /* \"#utility.yul\":2381:2405   */\n      tag_156\n        /* \"#utility.yul\":2399:2404   */\n      dup2\n        /* \"#utility.yul\":2381:2405   */\n      tag_96\n      jump\t// in\n    tag_156:\n        /* \"#utility.yul\":2376:2379   */\n      dup3\n        /* \"#utility.yul\":2369:2406   */\n      mstore\n        /* \"#utility.yul\":2294:2412   */\n      pop\n      pop\n      jump\t// out\n        /* \"#utility.yul\":2418:2640   */\n    tag_27:\n        /* \"#utility.yul\":2511:2515   */\n      0x00\n        /* \"#utility.yul\":2549:2551   */\n      0x20\n        /* \"#utility.yul\":2538:2547   */\n      dup3\n        /* \"#utility.yul\":2534:2552   */\n      add\n        /* \"#utility.yul\":2526:2552   */\n      swap1\n      pop\n        /* \"#utility.yul\":2562:2633   */\n      tag_158\n        /* \"#utility.yul\":2630:2631   */\n      0x00\n        /* \"#utility.yul\":2619:2628   */\n      dup4\n        /* \"#utility.yul\":2615:2632   */\n      add\n        /* \"#utility.yul\":2606:2612   */\n      dup5\n        /* \"#utility.yul\":2562:2633   */\n      tag_101\n      jump\t// in\n    tag_158:\n        /* \"#utility.yul\":2418:2640   */\n      swap3\n      swap2\n      pop\n      pop\n      jump\t// out\n        /* \"#utility.yul\":2646:2745   */\n    tag_102:\n        /* \"#utility.yul\":2698:2704   */\n      0x00\n        /* \"#utility.yul\":2732:2737   */\n      dup2\n        /* \"#utility.yul\":2726:2738   */\n      mload\n        /* \"#utility.yul\":2716:2738   */\n      swap1\n      pop\n        /* \"#utility.yul\":2646:2745   */\n      swap2\n      swap1\n      pop\n      jump\t// out\n        /* \"#utility.yul\":2751:2920   */\n    tag_103:\n        /* \"#utility.yul\":2835:2846   */\n      0x00\n        /* \"#utility.yul\":2869:2875   */\n      dup3\n        /* \"#utility.yul\":2864:2867   */\n      dup3\n        /* \"#utility.yul\":2857:2876   */\n      mstore\n        /* \"#utility.yul\":2909:2913   */\n      0x20\n        /* \"#utility.yul\":2904:2907   */\n      dup3\n        /* \"#utility.yul\":2900:2914   */\n      add\n        /* \"#utility.yul\":2885:2914   */\n      swap1\n      pop\n        /* \"#utility.yul\":2751:2920   */\n      swap3\n      swap2\n      pop\n      pop\n      jump\t// out\n        /* \"#utility.yul\":2926:3233   */\n    tag_104:\n        /* \"#utility.yul\":2994:2995   */\n      0x00\n        /* \"#utility.yul\":3004:3117   */\n    tag_162:\n        /* \"#utility.yul\":3018:3024   */\n      dup4\n        /* \"#utility.yul\":3015:3016   */\n      dup2\n        /* \"#utility.yul\":3012:3025   */\n      lt\n        /* \"#utility.yul\":3004:3117   */\n      iszero\n      tag_164\n      jumpi\n        /* \"#utility.yul\":3103:3104   */\n      dup1\n        /* \"#utility.yul\":3098:3101   */\n      dup3\n        /* \"#utility.yul\":3094:3105   */\n      add\n        /* \"#utility.yul\":3088:3106   */\n      mload\n        /* \"#utility.yul\":3084:3085   */\n      dup2\n        /* \"#utility.yul\":3079:3082   */\n      dup5\n        /* \"#utility.yul\":3075:3086   */\n      add\n        /* \"#utility.yul\":3068:3107   */\n      mstore\n        /* \"#utility.yul\":3040:3042   */\n      0x20\n        /* \"#utility.yul\":3037:3038   */\n      dup2\n        /* \"#utility.yul\":3033:3043   */\n      add\n        /* \"#utility.yul\":3028:3043   */\n      swap1\n      pop\n        /* \"#utility.yul\":3004:3117   */\n      jump(tag_162)\n    tag_164:\n        /* \"#utility.yul\":3135:3141   */\n      dup4\n        /* \"#utility.yul\":3132:3133   */\n      dup2\n        /* \"#utility.yul\":3129:3142   */\n      gt\n        /* \"#utility.yul\":3126:3227   */\n      iszero\n      tag_165\n      jumpi\n        /* \"#utility.yul\":3215:3216   */\n      0x00\n        /* \"#utility.yul\":3206:3212   */\n      dup5\n        /* \"#utility.yul\":3201:3204   */\n      dup5\n        /* \"#utility.yul\":3197:3213   */\n      add\n        /* \"#utility.yul\":3190:3217   */\n      mstore\n        /* \"#utility.yul\":3126:3227   */\n    tag_165:\n        /* \"#utility.yul\":2975:3233   */\n      pop\n        /* \"#utility.yul\":2926:3233   */\n      pop\n      pop\n      pop\n      jump\t// out\n        /* \"#utility.yul\":3239:3341   */\n    tag_105:\n        /* \"#utility.yul\":3280:3286   */\n      0x00\n        /* \"#utility.yul\":3331:3333   */\n      0x1f\n        /* \"#utility.yul\":3327:3334   */\n      not\n        /* \"#utility.yul\":3322:3324   */\n      0x1f\n        /* \"#utility.yul\":3315:3320   */\n      dup4\n        /* \"#utility.yul\":3311:3325   */\n      add\n        /* \"#utility.yul\":3307:3335   */\n      and\n        /* \"#utility.yul\":3297:3335   */\n      swap1\n      pop\n        /* \"#utility.yul\":3239:3341   */\n      swap2\n      swap1\n      pop\n      jump\t// out\n        /* \"#utility.yul\":3347:3711   */\n    tag_106:\n        /* \"#utility.yul\":3435:3438   */\n      0x00\n        /* \"#utility.yul\":3463:3502   */\n      tag_168\n        /* \"#utility.yul\":3496:3501   */\n      dup3\n        /* \"#utility.yul\":3463:3502   */\n      tag_102\n      jump\t// in\n    tag_168:\n        /* \"#utility.yul\":3518:3589   */\n      tag_169\n        /* \"#utility.yul\":3582:3588   */\n      dup2\n        /* \"#utility.yul\":3577:3580   */\n      dup6\n        /* \"#utility.yul\":3518:3589   */\n      tag_103\n      jump\t// in\n    tag_169:\n        /* \"#utility.yul\":3511:3589   */\n      swap4\n      pop\n        /* \"#utility.yul\":3598:3650   */\n      tag_170\n        /* \"#utility.yul\":3643:3649   */\n      dup2\n        /* \"#utility.yul\":3638:3641   */\n      dup6\n        /* \"#utility.yul\":3631:3635   */\n      0x20\n        /* \"#utility.yul\":3624:3629   */\n      dup7\n        /* \"#utility.yul\":3620:3636   */\n      add\n        /* \"#utility.yul\":3598:3650   */\n      tag_104\n      jump\t// in\n    tag_170:\n        /* \"#utility.yul\":3675:3704   */\n      tag_171\n        /* \"#utility.yul\":3697:3703   */\n      dup2\n        /* \"#utility.yul\":3675:3704   */\n      tag_105\n      jump\t// in\n    tag_171:\n        /* \"#utility.yul\":3670:3673   */\n      dup5\n        /* \"#utility.yul\":3666:3705   */\n      add\n        /* \"#utility.yul\":3659:3705   */\n      swap2\n      pop\n        /* \"#utility.yul\":3439:3711   */\n      pop\n        /* \"#utility.yul\":3347:3711   */\n      swap3\n      swap2\n      pop\n      pop\n      jump\t// out\n        /* \"#utility.yul\":3717:3835   */\n    tag_107:\n        /* \"#utility.yul\":3804:3828   */\n      tag_173\n        /* \"#utility.yul\":3822:3827   */\n      dup2\n        /* \"#utility.yul\":3804:3828   */\n      tag_92\n      jump\t// in\n    tag_173:\n        /* \"#utility.yul\":3799:3802   */\n      dup3\n        /* \"#utility.yul\":3792:3829   */\n      mstore\n        /* \"#utility.yul\":3717:3835   */\n      pop\n      pop\n      jump\t// out\n        /* \"#utility.yul\":3841:3945   */\n    tag_108:\n        /* \"#utility.yul\":3886:3893   */\n      0x00\n        /* \"#utility.yul\":3915:3939   */\n      tag_175\n        /* \"#utility.yul\":3933:3938   */\n      dup3\n        /* \"#utility.yul\":3915:3939   */\n      tag_95\n      jump\t// in\n    tag_175:\n        /* \"#utility.yul\":3904:3939   */\n      swap1\n      pop\n        /* \"#utility.yul\":3841:3945   */\n      swap2\n      swap1\n      pop\n      jump\t// out\n        /* \"#utility.yul\":3951:4093   */\n    tag_109:\n        /* \"#utility.yul\":4054:4086   */\n      tag_177\n        /* \"#utility.yul\":4080:4085   */\n      dup2\n        /* \"#utility.yul\":4054:4086   */\n      tag_108\n      jump\t// in\n    tag_177:\n        /* \"#utility.yul\":4049:4052   */\n      dup3\n        /* \"#utility.yul\":4042:4087   */\n      mstore\n        /* \"#utility.yul\":3951:4093   */\n      pop\n      pop\n      jump\t// out\n        /* \"#utility.yul\":4099:4874   */\n    tag_33:\n        /* \"#utility.yul\":4334:4338   */\n      0x00\n        /* \"#utility.yul\":4372:4375   */\n      0xa0\n        /* \"#utility.yul\":4361:4370   */\n      dup3\n        /* \"#utility.yul\":4357:4376   */\n      add\n        /* \"#utility.yul\":4349:4376   */\n      swap1\n      pop\n        /* \"#utility.yul\":4422:4431   */\n      dup2\n        /* \"#utility.yul\":4416:4420   */\n      dup2\n        /* \"#utility.yul\":4412:4432   */\n      sub\n        /* \"#utility.yul\":4408:4409   */\n      0x00\n        /* \"#utility.yul\":4397:4406   */\n      dup4\n        /* \"#utility.yul\":4393:4410   */\n      add\n        /* \"#utility.yul\":4386:4433   */\n      mstore\n        /* \"#utility.yul\":4450:4528   */\n      tag_179\n        /* \"#utility.yul\":4523:4527   */\n      dup2\n        /* \"#utility.yul\":4514:4520   */\n      dup9\n        /* \"#utility.yul\":4450:4528   */\n      tag_106\n      jump\t// in\n    tag_179:\n        /* \"#utility.yul\":4442:4528   */\n      swap1\n      pop\n        /* \"#utility.yul\":4538:4610   */\n      tag_180\n        /* \"#utility.yul\":4606:4608   */\n      0x20\n        /* \"#utility.yul\":4595:4604   */\n      dup4\n        /* \"#utility.yul\":4591:4609   */\n      add\n        /* \"#utility.yul\":4582:4588   */\n      dup8\n        /* \"#utility.yul\":4538:4610   */\n      tag_107\n      jump\t// in\n    tag_180:\n        /* \"#utility.yul\":4620:4708   */\n      tag_181\n        /* \"#utility.yul\":4704:4706   */\n      0x40\n        /* \"#utility.yul\":4693:4702   */\n      dup4\n        /* \"#utility.yul\":4689:4707   */\n      add\n        /* \"#utility.yul\":4680:4686   */\n      dup7\n        /* \"#utility.yul\":4620:4708   */\n      tag_109\n      jump\t// in\n    tag_181:\n        /* \"#utility.yul\":4718:4784   */\n      tag_182\n        /* \"#utility.yul\":4780:4782   */\n      0x60\n        /* \"#utility.yul\":4769:4778   */\n      dup4\n        /* \"#utility.yul\":4765:4783   */\n      add\n        /* \"#utility.yul\":4756:4762   */\n      dup6\n        /* \"#utility.yul\":4718:4784   */\n      tag_100\n      jump\t// in\n    tag_182:\n        /* \"#utility.yul\":4794:4867   */\n      tag_183\n        /* \"#utility.yul\":4862:4865   */\n      0x80\n        /* \"#utility.yul\":4851:4860   */\n      dup4\n        /* \"#utility.yul\":4847:4866   */\n      add\n        /* \"#utility.yul\":4838:4844   */\n      dup5\n        /* \"#utility.yul\":4794:4867   */\n      tag_107\n      jump\t// in\n    tag_183:\n        /* \"#utility.yul\":4099:4874   */\n      swap7\n      swap6\n      pop\n      pop\n      pop\n      pop\n      pop\n      pop\n      jump\t// out\n        /* \"#utility.yul\":4880:4997   */\n    tag_110:\n        /* \"#utility.yul\":4989:4990   */\n      0x00\n        /* \"#utility.yul\":4986:4987   */\n      dup1\n        /* \"#utility.yul\":4979:4991   */\n      revert\n        /* \"#utility.yul\":5003:5120   */\n    tag_111:\n        /* \"#utility.yul\":5112:5113   */\n      0x00\n        /* \"#utility.yul\":5109:5110   */\n      dup1\n        /* \"#utility.yul\":5102:5114   */\n      revert\n        /* \"#utility.yul\":5126:5306   */\n    tag_112:\n        /* \"#utility.yul\":5174:5251   */\n      0x4e487b7100000000000000000000000000000000000000000000000000000000\n        /* \"#utility.yul\":5171:5172   */\n      0x00\n        /* \"#utility.yul\":5164:5252   */\n      mstore\n        /* \"#utility.yul\":5271:5275   */\n      0x41\n        /* \"#utility.yul\":5268:5269   */\n      0x04\n        /* \"#utility.yul\":5261:5276   */\n      mstore\n        /* \"#utility.yul\":5295:5299   */\n      0x24\n        /* \"#utility.yul\":5292:5293   */\n      0x00\n        /* \"#utility.yul\":5285:5300   */\n      revert\n        /* \"#utility.yul\":5312:5593   */\n    tag_113:\n        /* \"#utility.yul\":5395:5422   */\n      tag_188\n        /* \"#utility.yul\":5417:5421   */\n      dup3\n        /* \"#utility.yul\":5395:5422   */\n      tag_105\n      jump\t// in\n    tag_188:\n        /* \"#utility.yul\":5387:5393   */\n      dup2\n        /* \"#utility.yul\":5383:5423   */\n      add\n        /* \"#utility.yul\":5525:5531   */\n      dup2\n        /* \"#utility.yul\":5513:5523   */\n      dup2\n        /* \"#utility.yul\":5510:5532   */\n      lt\n        /* \"#utility.yul\":5489:5507   */\n      0xffffffffffffffff\n        /* \"#utility.yul\":5477:5487   */\n      dup3\n        /* \"#utility.yul\":5474:5508   */\n      gt\n        /* \"#utility.yul\":5471:5533   */\n      or\n        /* \"#utility.yul\":5468:5556   */\n      iszero\n      tag_189\n      jumpi\n        /* \"#utility.yul\":5536:5554   */\n      tag_190\n      tag_112\n      jump\t// in\n    tag_190:\n        /* \"#utility.yul\":5468:5556   */\n    tag_189:\n        /* \"#utility.yul\":5576:5586   */\n      dup1\n        /* \"#utility.yul\":5572:5574   */\n      0x40\n        /* \"#utility.yul\":5565:5587   */\n      mstore\n        /* \"#utility.yul\":5355:5593   */\n      pop\n        /* \"#utility.yul\":5312:5593   */\n      pop\n      pop\n      jump\t// out\n        /* \"#utility.yul\":5599:5728   */\n    tag_114:\n        /* \"#utility.yul\":5633:5639   */\n      0x00\n        /* \"#utility.yul\":5660:5680   */\n      tag_192\n      tag_89\n      jump\t// in\n    tag_192:\n        /* \"#utility.yul\":5650:5680   */\n      swap1\n      pop\n        /* \"#utility.yul\":5689:5722   */\n      tag_193\n        /* \"#utility.yul\":5717:5721   */\n      dup3\n        /* \"#utility.yul\":5709:5715   */\n      dup3\n        /* \"#utility.yul\":5689:5722   */\n      tag_113\n      jump\t// in\n    tag_193:\n        /* \"#utility.yul\":5599:5728   */\n      swap2\n      swap1\n      pop\n      jump\t// out\n        /* \"#utility.yul\":5734:6042   */\n    tag_115:\n        /* \"#utility.yul\":5796:5800   */\n      0x00\n        /* \"#utility.yul\":5886:5904   */\n      0xffffffffffffffff\n        /* \"#utility.yul\":5878:5884   */\n      dup3\n        /* \"#utility.yul\":5875:5905   */\n      gt\n        /* \"#utility.yul\":5872:5928   */\n      iszero\n      tag_195\n      jumpi\n        /* \"#utility.yul\":5908:5926   */\n      tag_196\n      tag_112\n      jump\t// in\n    tag_196:\n        /* \"#utility.yul\":5872:5928   */\n    tag_195:\n        /* \"#utility.yul\":5946:5975   */\n      tag_197\n        /* \"#utility.yul\":5968:5974   */\n      dup3\n        /* \"#utility.yul\":5946:5975   */\n      tag_105\n      jump\t// in\n    tag_197:\n        /* \"#utility.yul\":5938:5975   */\n      swap1\n      pop\n        /* \"#utility.yul\":6030:6034   */\n      0x20\n        /* \"#utility.yul\":6024:6028   */\n      dup2\n        /* \"#utility.yul\":6020:6035   */\n      add\n        /* \"#utility.yul\":6012:6035   */\n      swap1\n      pop\n        /* \"#utility.yul\":5734:6042   */\n      swap2\n      swap1\n      pop\n      jump\t// out\n        /* \"#utility.yul\":6048:6202   */\n    tag_116:\n        /* \"#utility.yul\":6132:6138   */\n      dup3\n        /* \"#utility.yul\":6127:6130   */\n      dup2\n        /* \"#utility.yul\":6122:6125   */\n      dup4\n        /* \"#utility.yul\":6109:6139   */\n      calldatacopy\n        /* \"#utility.yul\":6194:6195   */\n      0x00\n        /* \"#utility.yul\":6185:6191   */\n      dup4\n        /* \"#utility.yul\":6180:6183   */\n      dup4\n        /* \"#utility.yul\":6176:6192   */\n      add\n        /* \"#utility.yul\":6169:6196   */\n      mstore\n        /* \"#utility.yul\":6048:6202   */\n      pop\n      pop\n      pop\n      jump\t// out\n        /* \"#utility.yul\":6208:6620   */\n    tag_117:\n        /* \"#utility.yul\":6286:6291   */\n      0x00\n        /* \"#utility.yul\":6311:6377   */\n      tag_200\n        /* \"#utility.yul\":6327:6376   */\n      tag_201\n        /* \"#utility.yul\":6369:6375   */\n      dup5\n        /* \"#utility.yul\":6327:6376   */\n      tag_115\n      jump\t// in\n    tag_201:\n        /* \"#utility.yul\":6311:6377   */\n      tag_114\n      jump\t// in\n    tag_200:\n        /* \"#utility.yul\":6302:6377   */\n      swap1\n      pop\n        /* \"#utility.yul\":6400:6406   */\n      dup3\n        /* \"#utility.yul\":6393:6398   */\n      dup2\n        /* \"#utility.yul\":6386:6407   */\n      mstore\n        /* \"#utility.yul\":6438:6442   */\n      0x20\n        /* \"#utility.yul\":6431:6436   */\n      dup2\n        /* \"#utility.yul\":6427:6443   */\n      add\n        /* \"#utility.yul\":6476:6479   */\n      dup5\n        /* \"#utility.yul\":6467:6473   */\n      dup5\n        /* \"#utility.yul\":6462:6465   */\n      dup5\n        /* \"#utility.yul\":6458:6474   */\n      add\n        /* \"#utility.yul\":6455:6480   */\n      gt\n        /* \"#utility.yul\":6452:6564   */\n      iszero\n      tag_202\n      jumpi\n        /* \"#utility.yul\":6483:6562   */\n      tag_203\n      tag_111\n      jump\t// in\n    tag_203:\n        /* \"#utility.yul\":6452:6564   */\n    tag_202:\n        /* \"#utility.yul\":6573:6614   */\n      tag_204\n        /* \"#utility.yul\":6607:6613   */\n      dup5\n        /* \"#utility.yul\":6602:6605   */\n      dup3\n        /* \"#utility.yul\":6597:6600   */\n      dup6\n        /* \"#utility.yul\":6573:6614   */\n      tag_116\n      jump\t// in\n    tag_204:\n        /* \"#utility.yul\":6292:6620   */\n      pop\n        /* \"#utility.yul\":6208:6620   */\n      swap4\n      swap3\n      pop\n      pop\n      pop\n      jump\t// out\n        /* \"#utility.yul\":6640:6980   */\n    tag_118:\n        /* \"#utility.yul\":6696:6701   */\n      0x00\n        /* \"#utility.yul\":6745:6748   */\n      dup3\n        /* \"#utility.yul\":6738:6742   */\n      0x1f\n        /* \"#utility.yul\":6730:6736   */\n      dup4\n        /* \"#utility.yul\":6726:6743   */\n      add\n        /* \"#utility.yul\":6722:6749   */\n      slt\n        /* \"#utility.yul\":6712:6834   */\n      tag_206\n      jumpi\n        /* \"#utility.yul\":6753:6832   */\n      tag_207\n      tag_110\n      jump\t// in\n    tag_207:\n        /* \"#utility.yul\":6712:6834   */\n    tag_206:\n        /* \"#utility.yul\":6870:6876   */\n      dup2\n        /* \"#utility.yul\":6857:6877   */\n      calldataload\n        /* \"#utility.yul\":6895:6974   */\n      tag_208\n        /* \"#utility.yul\":6970:6973   */\n      dup5\n        /* \"#utility.yul\":6962:6968   */\n      dup3\n        /* \"#utility.yul\":6955:6959   */\n      0x20\n        /* \"#utility.yul\":6947:6953   */\n      dup7\n        /* \"#utility.yul\":6943:6960   */\n      add\n        /* \"#utility.yul\":6895:6974   */\n      tag_117\n      jump\t// in\n    tag_208:\n        /* \"#utility.yul\":6886:6974   */\n      swap2\n      pop\n        /* \"#utility.yul\":6702:6980   */\n      pop\n        /* \"#utility.yul\":6640:6980   */\n      swap3\n      swap2\n      pop\n      pop\n      jump\t// out\n        /* \"#utility.yul\":6986:7124   */\n    tag_119:\n        /* \"#utility.yul\":7067:7099   */\n      tag_210\n        /* \"#utility.yul\":7093:7098   */\n      dup2\n        /* \"#utility.yul\":7067:7099   */\n      tag_108\n      jump\t// in\n    tag_210:\n        /* \"#utility.yul\":7060:7065   */\n      dup2\n        /* \"#utility.yul\":7057:7100   */\n      eq\n        /* \"#utility.yul\":7047:7118   */\n      tag_211\n      jumpi\n        /* \"#utility.yul\":7114:7115   */\n      0x00\n        /* \"#utility.yul\":7111:7112   */\n      dup1\n        /* \"#utility.yul\":7104:7116   */\n      revert\n        /* \"#utility.yul\":7047:7118   */\n    tag_211:\n        /* \"#utility.yul\":6986:7124   */\n      pop\n      jump\t// out\n        /* \"#utility.yul\":7130:7285   */\n    tag_120:\n        /* \"#utility.yul\":7184:7189   */\n      0x00\n        /* \"#utility.yul\":7222:7228   */\n      dup2\n        /* \"#utility.yul\":7209:7229   */\n      calldataload\n        /* \"#utility.yul\":7200:7229   */\n      swap1\n      pop\n        /* \"#utility.yul\":7238:7279   */\n      tag_213\n        /* \"#utility.yul\":7273:7278   */\n      dup2\n        /* \"#utility.yul\":7238:7279   */\n      tag_119\n      jump\t// in\n    tag_213:\n        /* \"#utility.yul\":7130:7285   */\n      swap3\n      swap2\n      pop\n      pop\n      jump\t// out\n        /* \"#utility.yul\":7291:8106   */\n    tag_37:\n        /* \"#utility.yul\":7386:7392   */\n      0x00\n        /* \"#utility.yul\":7394:7400   */\n      dup1\n        /* \"#utility.yul\":7402:7408   */\n      0x00\n        /* \"#utility.yul\":7451:7453   */\n      0x60\n        /* \"#utility.yul\":7439:7448   */\n      dup5\n        /* \"#utility.yul\":7430:7437   */\n      dup7\n        /* \"#utility.yul\":7426:7449   */\n      sub\n        /* \"#utility.yul\":7422:7454   */\n      slt\n        /* \"#utility.yul\":7419:7538   */\n      iszero\n      tag_215\n      jumpi\n        /* \"#utility.yul\":7457:7536   */\n      tag_216\n      tag_90\n      jump\t// in\n    tag_216:\n        /* \"#utility.yul\":7419:7538   */\n    tag_215:\n        /* \"#utility.yul\":7605:7606   */\n      0x00\n        /* \"#utility.yul\":7594:7603   */\n      dup5\n        /* \"#utility.yul\":7590:7607   */\n      add\n        /* \"#utility.yul\":7577:7608   */\n      calldataload\n        /* \"#utility.yul\":7635:7653   */\n      0xffffffffffffffff\n        /* \"#utility.yul\":7627:7633   */\n      dup2\n        /* \"#utility.yul\":7624:7654   */\n      gt\n        /* \"#utility.yul\":7621:7738   */\n      iszero\n      tag_217\n      jumpi\n        /* \"#utility.yul\":7657:7736   */\n      tag_218\n      tag_91\n      jump\t// in\n    tag_218:\n        /* \"#utility.yul\":7621:7738   */\n    tag_217:\n        /* \"#utility.yul\":7762:7825   */\n      tag_219\n        /* \"#utility.yul\":7817:7824   */\n      dup7\n        /* \"#utility.yul\":7808:7814   */\n      dup3\n        /* \"#utility.yul\":7797:7806   */\n      dup8\n        /* \"#utility.yul\":7793:7815   */\n      add\n        /* \"#utility.yul\":7762:7825   */\n      tag_118\n      jump\t// in\n    tag_219:\n        /* \"#utility.yul\":7752:7825   */\n      swap4\n      pop\n        /* \"#utility.yul\":7548:7835   */\n      pop\n        /* \"#utility.yul\":7874:7876   */\n      0x20\n        /* \"#utility.yul\":7900:7953   */\n      tag_220\n        /* \"#utility.yul\":7945:7952   */\n      dup7\n        /* \"#utility.yul\":7936:7942   */\n      dup3\n        /* \"#utility.yul\":7925:7934   */\n      dup8\n        /* \"#utility.yul\":7921:7943   */\n      add\n        /* \"#utility.yul\":7900:7953   */\n      tag_94\n      jump\t// in\n    tag_220:\n        /* \"#utility.yul\":7890:7953   */\n      swap3\n      pop\n        /* \"#utility.yul\":7845:7963   */\n      pop\n        /* \"#utility.yul\":8002:8004   */\n      0x40\n        /* \"#utility.yul\":8028:8089   */\n      tag_221\n        /* \"#utility.yul\":8081:8088   */\n      dup7\n        /* \"#utility.yul\":8072:8078   */\n      dup3\n        /* \"#utility.yul\":8061:8070   */\n      dup8\n        /* \"#utility.yul\":8057:8079   */\n      add\n        /* \"#utility.yul\":8028:8089   */\n      tag_120\n      jump\t// in\n    tag_221:\n        /* \"#utility.yul\":8018:8089   */\n      swap2\n      pop\n        /* \"#utility.yul\":7973:8099   */\n      pop\n        /* \"#utility.yul\":7291:8106   */\n      swap3\n      pop\n      swap3\n      pop\n      swap3\n      jump\t// out\n        /* \"#utility.yul\":8112:8334   */\n    tag_43:\n        /* \"#utility.yul\":8205:8209   */\n      0x00\n        /* \"#utility.yul\":8243:8245   */\n      0x20\n        /* \"#utility.yul\":8232:8241   */\n      dup3\n        /* \"#utility.yul\":8228:8246   */\n      add\n        /* \"#utility.yul\":8220:8246   */\n      swap1\n      pop\n        /* \"#utility.yul\":8256:8327   */\n      tag_223\n        /* \"#utility.yul\":8324:8325   */\n      0x00\n        /* \"#utility.yul\":8313:8322   */\n      dup4\n        /* \"#utility.yul\":8309:8326   */\n      add\n        /* \"#utility.yul\":8300:8306   */\n      dup5\n        /* \"#utility.yul\":8256:8327   */\n      tag_107\n      jump\t// in\n    tag_223:\n        /* \"#utility.yul\":8112:8334   */\n      swap3\n      swap2\n      pop\n      pop\n      jump\t// out\n        /* \"#utility.yul\":8340:8520   */\n    tag_121:\n        /* \"#utility.yul\":8388:8465   */\n      0x4e487b7100000000000000000000000000000000000000000000000000000000\n        /* \"#utility.yul\":8385:8386   */\n      0x00\n        /* \"#utility.yul\":8378:8466   */\n      mstore\n        /* \"#utility.yul\":8485:8489   */\n      0x12\n        /* \"#utility.yul\":8482:8483   */\n      0x04\n        /* \"#utility.yul\":8475:8490   */\n      mstore\n        /* \"#utility.yul\":8509:8513   */\n      0x24\n        /* \"#utility.yul\":8506:8507   */\n      0x00\n        /* \"#utility.yul\":8499:8514   */\n      revert\n        /* \"#utility.yul\":8526:8706   */\n    tag_122:\n        /* \"#utility.yul\":8574:8651   */\n      0x4e487b7100000000000000000000000000000000000000000000000000000000\n        /* \"#utility.yul\":8571:8572   */\n      0x00\n        /* \"#utility.yul\":8564:8652   */\n      mstore\n        /* \"#utility.yul\":8671:8675   */\n      0x11\n        /* \"#utility.yul\":8668:8669   */\n      0x04\n        /* \"#utility.yul\":8661:8676   */\n      mstore\n        /* \"#utility.yul\":8695:8699   */\n      0x24\n        /* \"#utility.yul\":8692:8693   */\n      0x00\n        /* \"#utility.yul\":8685:8700   */\n      revert\n        /* \"#utility.yul\":8712:8897   */\n    tag_54:\n        /* \"#utility.yul\":8752:8753   */\n      0x00\n        /* \"#utility.yul\":8769:8789   */\n      tag_227\n        /* \"#utility.yul\":8787:8788   */\n      dup3\n        /* \"#utility.yul\":8769:8789   */\n      tag_92\n      jump\t// in\n    tag_227:\n        /* \"#utility.yul\":8764:8789   */\n      swap2\n      pop\n        /* \"#utility.yul\":8803:8823   */\n      tag_228\n        /* \"#utility.yul\":8821:8822   */\n      dup4\n        /* \"#utility.yul\":8803:8823   */\n      tag_92\n      jump\t// in\n    tag_228:\n        /* \"#utility.yul\":8798:8823   */\n      swap3\n      pop\n        /* \"#utility.yul\":8842:8843   */\n      dup3\n        /* \"#utility.yul\":8832:8867   */\n      tag_229\n      jumpi\n        /* \"#utility.yul\":8847:8865   */\n      tag_230\n      tag_121\n      jump\t// in\n    tag_230:\n        /* \"#utility.yul\":8832:8867   */\n    tag_229:\n        /* \"#utility.yul\":8889:8890   */\n      dup3\n        /* \"#utility.yul\":8886:8887   */\n      dup3\n        /* \"#utility.yul\":8882:8891   */\n      div\n        /* \"#utility.yul\":8877:8891   */\n      swap1\n      pop\n        /* \"#utility.yul\":8712:8897   */\n      swap3\n      swap2\n      pop\n      pop\n      jump\t// out\n        /* \"#utility.yul\":8903:9083   */\n    tag_123:\n        /* \"#utility.yul\":8951:9028   */\n      0x4e487b7100000000000000000000000000000000000000000000000000000000\n        /* \"#utility.yul\":8948:8949   */\n      0x00\n        /* \"#utility.yul\":8941:9029   */\n      mstore\n        /* \"#utility.yul\":9048:9052   */\n      0x22\n        /* \"#utility.yul\":9045:9046   */\n      0x04\n        /* \"#utility.yul\":9038:9053   */\n      mstore\n        /* \"#utility.yul\":9072:9076   */\n      0x24\n        /* \"#utility.yul\":9069:9070   */\n      0x00\n        /* \"#utility.yul\":9062:9077   */\n      revert\n        /* \"#utility.yul\":9089:9409   */\n    tag_60:\n        /* \"#utility.yul\":9133:9139   */\n      0x00\n        /* \"#utility.yul\":9170:9171   */\n      0x02\n        /* \"#utility.yul\":9164:9168   */\n      dup3\n        /* \"#utility.yul\":9160:9172   */\n      div\n        /* \"#utility.yul\":9150:9172   */\n      swap1\n      pop\n        /* \"#utility.yul\":9217:9218   */\n      0x01\n        /* \"#utility.yul\":9211:9215   */\n      dup3\n        /* \"#utility.yul\":9207:9219   */\n      and\n        /* \"#utility.yul\":9238:9256   */\n      dup1\n        /* \"#utility.yul\":9228:9309   */\n      tag_233\n      jumpi\n        /* \"#utility.yul\":9294:9298   */\n      0x7f\n        /* \"#utility.yul\":9286:9292   */\n      dup3\n        /* \"#utility.yul\":9282:9299   */\n      and\n        /* \"#utility.yul\":9272:9299   */\n      swap2\n      pop\n        /* \"#utility.yul\":9228:9309   */\n    tag_233:\n        /* \"#utility.yul\":9356:9358   */\n      0x20\n        /* \"#utility.yul\":9348:9354   */\n      dup3\n        /* \"#utility.yul\":9345:9359   */\n      lt\n        /* \"#utility.yul\":9325:9343   */\n      dup2\n        /* \"#utility.yul\":9322:9360   */\n      eq\n        /* \"#utility.yul\":9319:9403   */\n      iszero\n      tag_234\n      jumpi\n        /* \"#utility.yul\":9375:9393   */\n      tag_235\n      tag_123\n      jump\t// in\n    tag_235:\n        /* \"#utility.yul\":9319:9403   */\n    tag_234:\n        /* \"#utility.yul\":9140:9409   */\n      pop\n        /* \"#utility.yul\":9089:9409   */\n      swap2\n      swap1\n      pop\n      jump\t// out\n        /* \"#utility.yul\":9415:9648   */\n    tag_69:\n        /* \"#utility.yul\":9454:9457   */\n      0x00\n        /* \"#utility.yul\":9477:9501   */\n      tag_237\n        /* \"#utility.yul\":9495:9500   */\n      dup3\n        /* \"#utility.yul\":9477:9501   */\n      tag_92\n      jump\t// in\n    tag_237:\n        /* \"#utility.yul\":9468:9501   */\n      swap2\n      pop\n        /* \"#utility.yul\":9523:9589   */\n      0xffffffffffffffffffffffffffffffffffffffffffffffffffffffffffffffff\n        /* \"#utility.yul\":9516:9521   */\n      dup3\n        /* \"#utility.yul\":9513:9590   */\n      eq\n        /* \"#utility.yul\":9510:9613   */\n      iszero\n      tag_238\n      jumpi\n        /* \"#utility.yul\":9593:9611   */\n      tag_239\n      tag_122\n      jump\t// in\n    tag_239:\n        /* \"#utility.yul\":9510:9613   */\n    tag_238:\n        /* \"#utility.yul\":9640:9641   */\n      0x01\n        /* \"#utility.yul\":9633:9638   */\n      dup3\n        /* \"#utility.yul\":9629:9642   */\n      add\n        /* \"#utility.yul\":9622:9642   */\n      swap1\n      pop\n        /* \"#utility.yul\":9415:9648   */\n      swap2\n      swap1\n      pop\n      jump\t// out\n\n    auxdata: 0xa2646970667358221220ce92fcecab63fe68714cdb11bcb5a308ae3fa3517631fa1695532cf3aa049b8a64736f6c634300080b0033\n}\n","bytecode":{"linkReferences":{},"object":"60806040523480156200001157600080fd5b5060405162000f2038038062000f2083398181016040528101906200003791906200012b565b806000806101000a81548173ffffffffffffffffffffffffffffffffffffffff021916908373ffffffffffffffffffffffffffffffffffffffff16021790555081600181905550505062000172565b600080fd5b6000819050919050565b620000a0816200008b565b8114620000ac57600080fd5b50565b600081519050620000c08162000095565b92915050565b600073ffffffffffffffffffffffffffffffffffffffff82169050919050565b6000620000f382620000c6565b9050919050565b6200010581620000e6565b81146200011157600080fd5b50565b6000815190506200012581620000fa565b92915050565b6000806040838503121562000145576200014462000086565b5b60006200015585828601620000af565b9250506020620001688582860162000114565b9150509250929050565b610d9e80620001826000396000f3fe60806040526004361061007b5760003560e01c80638a9cfd551161004e5780638a9cfd5514610152578063937e09b11461017b578063d7bb99ba146101a6578063d7d1bbdb146101b05761007b565b806303441006146100805780630a144391146100a9578063481c6a75146100e657806381d12c5814610111575b600080fd5b34801561008c57600080fd5b506100a760048036038101906100a29190610809565b6101d9565b005b3480156100b557600080fd5b506100d060048036038101906100cb9190610894565b610312565b6040516100dd91906108dc565b60405180910390f35b3480156100f257600080fd5b506100fb610332565b6040516101089190610906565b60405180910390f35b34801561011d57600080fd5b5061013860048036038101906101339190610809565b610356565b6040516101499594939291906109ea565b60405180910390f35b34801561015e57600080fd5b5061017960048036038101906101749190610ba5565b610441565b005b34801561018757600080fd5b50610190610558565b60405161019d9190610c14565b60405180910390f35b6101ae61055e565b005b3480156101bc57600080fd5b506101d760048036038101906101d29190610809565b6105de565b005b60008054906101000a900473ffffffffffffffffffffffffffffffffffffffff1673ffffffffffffffffffffffffffffffffffffffff163373ffffffffffffffffffffffffffffffffffffffff161461023157600080fd5b600060046000838152602001908152602001600020905060026003546102579190610c8d565b81600301541161026657600080fd5b8060020160149054906101000a900460ff161561028257600080fd5b60018160020160146101000a81548160ff0219169083151502179055508060020160009054906101000a900473ffffffffffffffffffffffffffffffffffffffff1673ffffffffffffffffffffffffffffffffffffffff166108fc82600101549081150290604051600060405180830381858888f1935050505015801561030d573d6000803e3d6000fd5b505050565b60056020528060005260406000206000915054906101000a900460ff1681565b60008054906101000a900473ffffffffffffffffffffffffffffffffffffffff1681565b600460205280600052604060002060009150905080600001805461037990610ced565b80601f01602080910402602001604051908101604052809291908181526020018280546103a590610ced565b80156103f25780601f106103c7576101008083540402835291602001916103f2565b820191906000526020600020905b8154815290600101906020018083116103d557829003601f168201915b5050505050908060010154908060020160009054906101000a900473ffffffffffffffffffffffffffffffffffffffff16908060020160149054906101000a900460ff16908060030154905085565b60008054906101000a900473ffffffffffffffffffffffffffffffffffffffff1673ffffffffffffffffffffffffffffffffffffffff163373ffffffffffffffffffffffffffffffffffffffff161461049957600080fd5b600060046000600260008154809291906104b290610d1f565b9190505581526020019081526020016000209050838160000190805190602001906104de92919061071c565b50828160010181905550818160020160006101000a81548173ffffffffffffffffffffffffffffffffffffffff021916908373ffffffffffffffffffffffffffffffffffffffff16021790555060008160020160146101000a81548160ff0219169083151502179055506000816003018190555050505050565b60015481565b600154341161056c57600080fd5b6001600560003373ffffffffffffffffffffffffffffffffffffffff1673ffffffffffffffffffffffffffffffffffffffff16815260200190815260200160002060006101000a81548160ff021916908315150217905550600360008154809291906105d790610d1f565b9190505550565b6000600460008381526020019081526020016000209050600560003373ffffffffffffffffffffffffffffffffffffffff1673ffffffffffffffffffffffffffffffffffffffff16815260200190815260200160002060009054906101000a900460ff1661064b57600080fd5b8060040160003373ffffffffffffffffffffffffffffffffffffffff1673ffffffffffffffffffffffffffffffffffffffff16815260200190815260200160002060009054906101000a900460ff16156106a457600080fd5b60018160040160003373ffffffffffffffffffffffffffffffffffffffff1673ffffffffffffffffffffffffffffffffffffffff16815260200190815260200160002060006101000a81548160ff02191690831515021790555080600301600081548092919061071390610d1f565b91905055505050565b82805461072890610ced565b90600052602060002090601f01602090048101928261074a5760008555610791565b82601f1061076357805160ff1916838001178555610791565b82800160010185558215610791579182015b82811115610790578251825591602001919060010190610775565b5b50905061079e91906107a2565b5090565b5b808211156107bb5760008160009055506001016107a3565b5090565b6000604051905090565b600080fd5b600080fd5b6000819050919050565b6107e6816107d3565b81146107f157600080fd5b50565b600081359050610803816107dd565b92915050565b60006020828403121561081f5761081e6107c9565b5b600061082d848285016107f4565b91505092915050565b600073ffffffffffffffffffffffffffffffffffffffff82169050919050565b600061086182610836565b9050919050565b61087181610856565b811461087c57600080fd5b50565b60008135905061088e81610868565b92915050565b6000602082840312156108aa576108a96107c9565b5b60006108b88482850161087f565b91505092915050565b60008115159050919050565b6108d6816108c1565b82525050565b60006020820190506108f160008301846108cd565b92915050565b61090081610856565b82525050565b600060208201905061091b60008301846108f7565b92915050565b600081519050919050565b600082825260208201905092915050565b60005b8381101561095b578082015181840152602081019050610940565b8381111561096a576000848401525b50505050565b6000601f19601f8301169050919050565b600061098c82610921565b610996818561092c565b93506109a681856020860161093d565b6109af81610970565b840191505092915050565b6109c3816107d3565b82525050565b60006109d482610836565b9050919050565b6109e4816109c9565b82525050565b600060a0820190508181036000830152610a048188610981565b9050610a1360208301876109ba565b610a2060408301866109db565b610a2d60608301856108cd565b610a3a60808301846109ba565b9695505050505050565b600080fd5b600080fd5b7f4e487b7100000000000000000000000000000000000000000000000000000000600052604160045260246000fd5b610a8682610970565b810181811067ffffffffffffffff82111715610aa557610aa4610a4e565b5b80604052505050565b6000610ab86107bf565b9050610ac48282610a7d565b919050565b600067ffffffffffffffff821115610ae457610ae3610a4e565b5b610aed82610970565b9050602081019050919050565b82818337600083830152505050565b6000610b1c610b1784610ac9565b610aae565b905082815260208101848484011115610b3857610b37610a49565b5b610b43848285610afa565b509392505050565b600082601f830112610b6057610b5f610a44565b5b8135610b70848260208601610b09565b91505092915050565b610b82816109c9565b8114610b8d57600080fd5b50565b600081359050610b9f81610b79565b92915050565b600080600060608486031215610bbe57610bbd6107c9565b5b600084013567ffffffffffffffff811115610bdc57610bdb6107ce565b5b610be886828701610b4b565b9350506020610bf9868287016107f4565b9250506040610c0a86828701610b90565b9150509250925092565b6000602082019050610c2960008301846109ba565b92915050565b7f4e487b7100000000000000000000000000000000000000000000000000000000600052601260045260246000fd5b7f4e487b7100000000000000000000000000000000000000000000000000000000600052601160045260246000fd5b6000610c98826107d3565b9150610ca3836107d3565b925082610cb357610cb2610c2f565b5b828204905092915050565b7f4e487b7100000000000000000000000000000000000000000000000000000000600052602260045260246000fd5b60006002820490506001821680610d0557607f821691505b60208210811415610d1957610d18610cbe565b5b50919050565b6000610d2a826107d3565b91507fffffffffffffffffffffffffffffffffffffffffffffffffffffffffffffffff821415610d5d57610d5c610c5e565b5b60018201905091905056fea2646970667358221220ce92fcecab63fe68714cdb11bcb5a308ae3fa3517631fa1695532cf3aa049b8a64736f6c634300080b0033","opcodes":"PUSH1 0x80 PUSH1 0x40 MSTORE CALLVALUE DUP1 ISZERO PUSH3 0x11 JUMPI PUSH1 0x0 DUP1 REVERT JUMPDEST POP PUSH1 0x40 MLOAD PUSH3 0xF20 CODESIZE SUB DUP1 PUSH3 0xF20 DUP4 CODECOPY DUP2 DUP2 ADD PUSH1 0x40 MSTORE DUP2 ADD SWAP1 PUSH3 0x37 SWAP2 SWAP1 PUSH3 0x12B JUMP JUMPDEST DUP1 PUSH1 0x0 DUP1 PUSH2 0x100 EXP DUP2 SLOAD DUP2 PUSH20 0xFFFFFFFFFFFFFFFFFFFFFFFFFFFFFFFFFFFFFFFF MUL NOT AND SWAP1 DUP4 PUSH20 0xFFFFFFFFFFFFFFFFFFFFFFFFFFFFFFFFFFFFFFFF AND MUL OR SWAP1 SSTORE POP DUP2 PUSH1 0x1 DUP2 SWAP1 SSTORE POP POP POP PUSH3 0x172 JUMP JUMPDEST PUSH1 0x0 DUP1 REVERT JUMPDEST PUSH1 0x0 DUP2 SWAP1 POP SWAP2 SWAP1 POP JUMP JUMPDEST PUSH3 0xA0 DUP2 PUSH3 0x8B JUMP JUMPDEST DUP2 EQ PUSH3 0xAC JUMPI PUSH1 0x0 DUP1 REVERT JUMPDEST POP JUMP JUMPDEST PUSH1 0x0 DUP2 MLOAD SWAP1 POP PUSH3 0xC0 DUP2 PUSH3 0x95 JUMP JUMPDEST SWAP3 SWAP2 POP POP JUMP JUMPDEST PUSH1 0x0 PUSH20 0xFFFFFFFFFFFFFFFFFFFFFFFFFFFFFFFFFFFFFFFF DUP3 AND SWAP1 POP SWAP2 SWAP1 POP JUMP JUMPDEST PUSH1 0x0 PUSH3 0xF3 DUP3 PUSH3 0xC6 JUMP JUMPDEST SWAP1 POP SWAP2 SWAP1 POP JUMP JUMPDEST PUSH3 0x105 DUP2 PUSH3 0xE6 JUMP JUMPDEST DUP2 EQ PUSH3 0x111 JUMPI PUSH1 0x0 DUP1 REVERT JUMPDEST POP JUMP JUMPDEST PUSH1 0x0 DUP2 MLOAD SWAP1 POP PUSH3 0x125 DUP2 PUSH3 0xFA JUMP JUMPDEST SWAP3 SWAP2 POP POP JUMP JUMPDEST PUSH1 0x0 DUP1 PUSH1 0x40 DUP4 DUP6 SUB SLT ISZERO PUSH3 0x145 JUMPI PUSH3 0x144 PUSH3 0x86 JUMP JUMPDEST JUMPDEST PUSH1 0x0 PUSH3 0x155 DUP6 DUP3 DUP7 ADD PUSH3 0xAF JUMP JUMPDEST SWAP3 POP POP PUSH1 0x20 PUSH3 0x168 DUP6 DUP3 DUP7 ADD PUSH3 0x114 JUMP JUMPDEST SWAP2 POP POP SWAP3 POP SWAP3 SWAP1 POP JUMP JUMPDEST PUSH2 0xD9E DUP1 PUSH3 0x182 PUSH1 0x0 CODECOPY PUSH1 0x0 RETURN INVALID PUSH1 0x80 PUSH1 0x40 MSTORE PUSH1 0x4 CALLDATASIZE LT PUSH2 0x7B JUMPI PUSH1 0x0 CALLDATALOAD PUSH1 0xE0 SHR DUP1 PUSH4 0x8A9CFD55 GT PUSH2 0x4E JUMPI DUP1 PUSH4 0x8A9CFD55 EQ PUSH2 0x152 JUMPI DUP1 PUSH4 0x937E09B1 EQ PUSH2 0x17B JUMPI DUP1 PUSH4 0xD7BB99BA EQ PUSH2 0x1A6 JUMPI DUP1 PUSH4 0xD7D1BBDB EQ PUSH2 0x1B0 JUMPI PUSH2 0x7B JUMP JUMPDEST DUP1 PUSH4 0x3441006 EQ PUSH2 0x80 JUMPI DUP1 PUSH4 0xA144391 EQ PUSH2 0xA9 JUMPI DUP1 PUSH4 0x481C6A75 EQ PUSH2 0xE6 JUMPI DUP1 PUSH4 0x81D12C58 EQ PUSH2 0x111 JUMPI JUMPDEST PUSH1 0x0 DUP1 REVERT JUMPDEST CALLVALUE DUP1 ISZERO PUSH2 0x8C JUMPI PUSH1 0x0 DUP1 REVERT JUMPDEST POP PUSH2 0xA7 PUSH1 0x4 DUP1 CALLDATASIZE SUB DUP2 ADD SWAP1 PUSH2 0xA2 SWAP2 SWAP1 PUSH2 0x809 JUMP JUMPDEST PUSH2 0x1D9 JUMP JUMPDEST STOP JUMPDEST CALLVALUE DUP1 ISZERO PUSH2 0xB5 JUMPI PUSH1 0x0 DUP1 REVERT JUMPDEST POP PUSH2 0xD0 PUSH1 0x4 DUP1 CALLDATASIZE SUB DUP2 ADD SWAP1 PUSH2 0xCB SWAP2 SWAP1 PUSH2 0x894 JUMP JUMPDEST PUSH2 0x312 JUMP JUMPDEST PUSH1 0x40 MLOAD PUSH2 0xDD SWAP2 SWAP1 PUSH2 0x8DC JUMP JUMPDEST PUSH1 0x40 MLOAD DUP1 SWAP2 SUB SWAP1 RETURN JUMPDEST CALLVALUE DUP1 ISZERO PUSH2 0xF2 JUMPI PUSH1 0x0 DUP1 REVERT JUMPDEST POP PUSH2 0xFB PUSH2 0x332 JUMP JUMPDEST PUSH1 0x40 MLOAD PUSH2 0x108 SWAP2 SWAP1 PUSH2 0x906 JUMP JUMPDEST PUSH1 0x40 MLOAD DUP1 SWAP2 SUB SWAP1 RETURN JUMPDEST CALLVALUE DUP1 ISZERO PUSH2 0x11D JUMPI PUSH1 0x0 DUP1 REVERT JUMPDEST POP PUSH2 0x138 PUSH1 0x4 DUP1 CALLDATASIZE SUB DUP2 ADD SWAP1 PUSH2 0x133 SWAP2 SWAP1 PUSH2 0x809 JUMP JUMPDEST PUSH2 0x356 JUMP JUMPDEST PUSH1 0x40 MLOAD PUSH2 0x149 SWAP6 SWAP5 SWAP4 SWAP3 SWAP2 SWAP1 PUSH2 0x9EA JUMP JUMPDEST PUSH1 0x40 MLOAD DUP1 SWAP2 SUB SWAP1 RETURN JUMPDEST CALLVALUE DUP1 ISZERO PUSH2 0x15E JUMPI PUSH1 0x0 DUP1 REVERT JUMPDEST POP PUSH2 0x179 PUSH1 0x4 DUP1 CALLDATASIZE SUB DUP2 ADD SWAP1 PUSH2 0x174 SWAP2 SWAP1 PUSH2 0xBA5 JUMP JUMPDEST PUSH2 0x441 JUMP JUMPDEST STOP JUMPDEST CALLVALUE DUP1 ISZERO PUSH2 0x187 JUMPI PUSH1 0x0 DUP1 REVERT JUMPDEST POP PUSH2 0x190 PUSH2 0x558 JUMP JUMPDEST PUSH1 0x40 MLOAD PUSH2 0x19D SWAP2 SWAP1 PUSH2 0xC14 JUMP JUMPDEST PUSH1 0x40 MLOAD DUP1 SWAP2 SUB SWAP1 RETURN JUMPDEST PUSH2 0x1AE PUSH2 0x55E JUMP JUMPDEST STOP JUMPDEST CALLVALUE DUP1 ISZERO PUSH2 0x1BC JUMPI PUSH1 0x0 DUP1 REVERT JUMPDEST POP PUSH2 0x1D7 PUSH1 0x4 DUP1 CALLDATASIZE SUB DUP2 ADD SWAP1 PUSH2 0x1D2 SWAP2 SWAP1 PUSH2 0x809 JUMP JUMPDEST PUSH2 0x5DE JUMP JUMPDEST STOP JUMPDEST PUSH1 0x0 DUP1 SLOAD SWAP1 PUSH2 0x100 EXP SWAP1 DIV PUSH20 0xFFFFFFFFFFFFFFFFFFFFFFFFFFFFFFFFFFFFFFFF AND PUSH20 0xFFFFFFFFFFFFFFFFFFFFFFFFFFFFFFFFFFFFFFFF AND CALLER PUSH20 0xFFFFFFFFFFFFFFFFFFFFFFFFFFFFFFFFFFFFFFFF AND EQ PUSH2 0x231 JUMPI PUSH1 0x0 DUP1 REVERT JUMPDEST PUSH1 0x0 PUSH1 0x4 PUSH1 0x0 DUP4 DUP2 MSTORE PUSH1 0x20 ADD SWAP1 DUP2 MSTORE PUSH1 0x20 ADD PUSH1 0x0 KECCAK256 SWAP1 POP PUSH1 0x2 PUSH1 0x3 SLOAD PUSH2 0x257 SWAP2 SWAP1 PUSH2 0xC8D JUMP JUMPDEST DUP2 PUSH1 0x3 ADD SLOAD GT PUSH2 0x266 JUMPI PUSH1 0x0 DUP1 REVERT JUMPDEST DUP1 PUSH1 0x2 ADD PUSH1 0x14 SWAP1 SLOAD SWAP1 PUSH2 0x100 EXP SWAP1 DIV PUSH1 0xFF AND ISZERO PUSH2 0x282 JUMPI PUSH1 0x0 DUP1 REVERT JUMPDEST PUSH1 0x1 DUP2 PUSH1 0x2 ADD PUSH1 0x14 PUSH2 0x100 EXP DUP2 SLOAD DUP2 PUSH1 0xFF MUL NOT AND SWAP1 DUP4 ISZERO ISZERO MUL OR SWAP1 SSTORE POP DUP1 PUSH1 0x2 ADD PUSH1 0x0 SWAP1 SLOAD SWAP1 PUSH2 0x100 EXP SWAP1 DIV PUSH20 0xFFFFFFFFFFFFFFFFFFFFFFFFFFFFFFFFFFFFFFFF AND PUSH20 0xFFFFFFFFFFFFFFFFFFFFFFFFFFFFFFFFFFFFFFFF AND PUSH2 0x8FC DUP3 PUSH1 0x1 ADD SLOAD SWAP1 DUP2 ISZERO MUL SWAP1 PUSH1 0x40 MLOAD PUSH1 0x0 PUSH1 0x40 MLOAD DUP1 DUP4 SUB DUP2 DUP6 DUP9 DUP9 CALL SWAP4 POP POP POP POP ISZERO DUP1 ISZERO PUSH2 0x30D JUMPI RETURNDATASIZE PUSH1 0x0 DUP1 RETURNDATACOPY RETURNDATASIZE PUSH1 0x0 REVERT JUMPDEST POP POP POP JUMP JUMPDEST PUSH1 0x5 PUSH1 0x20 MSTORE DUP1 PUSH1 0x0 MSTORE PUSH1 0x40 PUSH1 0x0 KECCAK256 PUSH1 0x0 SWAP2 POP SLOAD SWAP1 PUSH2 0x100 EXP SWAP1 DIV PUSH1 0xFF AND DUP2 JUMP JUMPDEST PUSH1 0x0 DUP1 SLOAD SWAP1 PUSH2 0x100 EXP SWAP1 DIV PUSH20 0xFFFFFFFFFFFFFFFFFFFFFFFFFFFFFFFFFFFFFFFF AND DUP2 JUMP JUMPDEST PUSH1 0x4 PUSH1 0x20 MSTORE DUP1 PUSH1 0x0 MSTORE PUSH1 0x40 PUSH1 0x0 KECCAK256 PUSH1 0x0 SWAP2 POP SWAP1 POP DUP1 PUSH1 0x0 ADD DUP1 SLOAD PUSH2 0x379 SWAP1 PUSH2 0xCED JUMP JUMPDEST DUP1 PUSH1 0x1F ADD PUSH1 0x20 DUP1 SWAP2 DIV MUL PUSH1 0x20 ADD PUSH1 0x40 MLOAD SWAP1 DUP2 ADD PUSH1 0x40 MSTORE DUP1 SWAP3 SWAP2 SWAP1 DUP2 DUP2 MSTORE PUSH1 0x20 ADD DUP3 DUP1 SLOAD PUSH2 0x3A5 SWAP1 PUSH2 0xCED JUMP JUMPDEST DUP1 ISZERO PUSH2 0x3F2 JUMPI DUP1 PUSH1 0x1F LT PUSH2 0x3C7 JUMPI PUSH2 0x100 DUP1 DUP4 SLOAD DIV MUL DUP4 MSTORE SWAP2 PUSH1 0x20 ADD SWAP2 PUSH2 0x3F2 JUMP JUMPDEST DUP3 ADD SWAP2 SWAP1 PUSH1 0x0 MSTORE PUSH1 0x20 PUSH1 0x0 KECCAK256 SWAP1 JUMPDEST DUP2 SLOAD DUP2 MSTORE SWAP1 PUSH1 0x1 ADD SWAP1 PUSH1 0x20 ADD DUP1 DUP4 GT PUSH2 0x3D5 JUMPI DUP3 SWAP1 SUB PUSH1 0x1F AND DUP3 ADD SWAP2 JUMPDEST POP POP POP POP POP SWAP1 DUP1 PUSH1 0x1 ADD SLOAD SWAP1 DUP1 PUSH1 0x2 ADD PUSH1 0x0 SWAP1 SLOAD SWAP1 PUSH2 0x100 EXP SWAP1 DIV PUSH20 0xFFFFFFFFFFFFFFFFFFFFFFFFFFFFFFFFFFFFFFFF AND SWAP1 DUP1 PUSH1 0x2 ADD PUSH1 0x14 SWAP1 SLOAD SWAP1 PUSH2 0x100 EXP SWAP1 DIV PUSH1 0xFF AND SWAP1 DUP1 PUSH1 0x3 ADD SLOAD SWAP1 POP DUP6 JUMP JUMPDEST PUSH1 0x0 DUP1 SLOAD SWAP1 PUSH2 0x100 EXP SWAP1 DIV PUSH20 0xFFFFFFFFFFFFFFFFFFFFFFFFFFFFFFFFFFFFFFFF AND PUSH20 0xFFFFFFFFFFFFFFFFFFFFFFFFFFFFFFFFFFFFFFFF AND CALLER PUSH20 0xFFFFFFFFFFFFFFFFFFFFFFFFFFFFFFFFFFFFFFFF AND EQ PUSH2 0x499 JUMPI PUSH1 0x0 DUP1 REVERT JUMPDEST PUSH1 0x0 PUSH1 0x4 PUSH1 0x0 PUSH1 0x2 PUSH1 0x0 DUP2 SLOAD DUP1 SWAP3 SWAP2 SWAP1 PUSH2 0x4B2 SWAP1 PUSH2 0xD1F JUMP JUMPDEST SWAP2 SWAP1 POP SSTORE DUP2 MSTORE PUSH1 0x20 ADD SWAP1 DUP2 MSTORE PUSH1 0x20 ADD PUSH1 0x0 KECCAK256 SWAP1 POP DUP4 DUP2 PUSH1 0x0 ADD SWAP1 DUP1 MLOAD SWAP1 PUSH1 0x20 ADD SWAP1 PUSH2 0x4DE SWAP3 SWAP2 SWAP1 PUSH2 0x71C JUMP JUMPDEST POP DUP3 DUP2 PUSH1 0x1 ADD DUP2 SWAP1 SSTORE POP DUP2 DUP2 PUSH1 0x2 ADD PUSH1 0x0 PUSH2 0x100 EXP DUP2 SLOAD DUP2 PUSH20 0xFFFFFFFFFFFFFFFFFFFFFFFFFFFFFFFFFFFFFFFF MUL NOT AND SWAP1 DUP4 PUSH20 0xFFFFFFFFFFFFFFFFFFFFFFFFFFFFFFFFFFFFFFFF AND MUL OR SWAP1 SSTORE POP PUSH1 0x0 DUP2 PUSH1 0x2 ADD PUSH1 0x14 PUSH2 0x100 EXP DUP2 SLOAD DUP2 PUSH1 0xFF MUL NOT AND SWAP1 DUP4 ISZERO ISZERO MUL OR SWAP1 SSTORE POP PUSH1 0x0 DUP2 PUSH1 0x3 ADD DUP2 SWAP1 SSTORE POP POP POP POP POP JUMP JUMPDEST PUSH1 0x1 SLOAD DUP2 JUMP JUMPDEST PUSH1 0x1 SLOAD CALLVALUE GT PUSH2 0x56C JUMPI PUSH1 0x0 DUP1 REVERT JUMPDEST PUSH1 0x1 PUSH1 0x5 PUSH1 0x0 CALLER PUSH20 0xFFFFFFFFFFFFFFFFFFFFFFFFFFFFFFFFFFFFFFFF AND PUSH20 0xFFFFFFFFFFFFFFFFFFFFFFFFFFFFFFFFFFFFFFFF AND DUP2 MSTORE PUSH1 0x20 ADD SWAP1 DUP2 MSTORE PUSH1 0x20 ADD PUSH1 0x0 KECCAK256 PUSH1 0x0 PUSH2 0x100 EXP DUP2 SLOAD DUP2 PUSH1 0xFF MUL NOT AND SWAP1 DUP4 ISZERO ISZERO MUL OR SWAP1 SSTORE POP PUSH1 0x3 PUSH1 0x0 DUP2 SLOAD DUP1 SWAP3 SWAP2 SWAP1 PUSH2 0x5D7 SWAP1 PUSH2 0xD1F JUMP JUMPDEST SWAP2 SWAP1 POP SSTORE POP JUMP JUMPDEST PUSH1 0x0 PUSH1 0x4 PUSH1 0x0 DUP4 DUP2 MSTORE PUSH1 0x20 ADD SWAP1 DUP2 MSTORE PUSH1 0x20 ADD PUSH1 0x0 KECCAK256 SWAP1 POP PUSH1 0x5 PUSH1 0x0 CALLER PUSH20 0xFFFFFFFFFFFFFFFFFFFFFFFFFFFFFFFFFFFFFFFF AND PUSH20 0xFFFFFFFFFFFFFFFFFFFFFFFFFFFFFFFFFFFFFFFF AND DUP2 MSTORE PUSH1 0x20 ADD SWAP1 DUP2 MSTORE PUSH1 0x20 ADD PUSH1 0x0 KECCAK256 PUSH1 0x0 SWAP1 SLOAD SWAP1 PUSH2 0x100 EXP SWAP1 DIV PUSH1 0xFF AND PUSH2 0x64B JUMPI PUSH1 0x0 DUP1 REVERT JUMPDEST DUP1 PUSH1 0x4 ADD PUSH1 0x0 CALLER PUSH20 0xFFFFFFFFFFFFFFFFFFFFFFFFFFFFFFFFFFFFFFFF AND PUSH20 0xFFFFFFFFFFFFFFFFFFFFFFFFFFFFFFFFFFFFFFFF AND DUP2 MSTORE PUSH1 0x20 ADD SWAP1 DUP2 MSTORE PUSH1 0x20 ADD PUSH1 0x0 KECCAK256 PUSH1 0x0 SWAP1 SLOAD SWAP1 PUSH2 0x100 EXP SWAP1 DIV PUSH1 0xFF AND ISZERO PUSH2 0x6A4 JUMPI PUSH1 0x0 DUP1 REVERT JUMPDEST PUSH1 0x1 DUP2 PUSH1 0x4 ADD PUSH1 0x0 CALLER PUSH20 0xFFFFFFFFFFFFFFFFFFFFFFFFFFFFFFFFFFFFFFFF AND PUSH20 0xFFFFFFFFFFFFFFFFFFFFFFFFFFFFFFFFFFFFFFFF AND DUP2 MSTORE PUSH1 0x20 ADD SWAP1 DUP2 MSTORE PUSH1 0x20 ADD PUSH1 0x0 KECCAK256 PUSH1 0x0 PUSH2 0x100 EXP DUP2 SLOAD DUP2 PUSH1 0xFF MUL NOT AND SWAP1 DUP4 ISZERO ISZERO MUL OR SWAP1 SSTORE POP DUP1 PUSH1 0x3 ADD PUSH1 0x0 DUP2 SLOAD DUP1 SWAP3 SWAP2 SWAP1 PUSH2 0x713 SWAP1 PUSH2 0xD1F JUMP JUMPDEST SWAP2 SWAP1 POP SSTORE POP POP POP JUMP JUMPDEST DUP3 DUP1 SLOAD PUSH2 0x728 SWAP1 PUSH2 0xCED JUMP JUMPDEST SWAP1 PUSH1 0x0 MSTORE PUSH1 0x20 PUSH1 0x0 KECCAK256 SWAP1 PUSH1 0x1F ADD PUSH1 0x20 SWAP1 DIV DUP2 ADD SWAP3 DUP3 PUSH2 0x74A JUMPI PUSH1 0x0 DUP6 SSTORE PUSH2 0x791 JUMP JUMPDEST DUP3 PUSH1 0x1F LT PUSH2 0x763 JUMPI DUP1 MLOAD PUSH1 0xFF NOT AND DUP4 DUP1 ADD OR DUP6 SSTORE PUSH2 0x791 JUMP JUMPDEST DUP3 DUP1 ADD PUSH1 0x1 ADD DUP6 SSTORE DUP3 ISZERO PUSH2 0x791 JUMPI SWAP2 DUP3 ADD JUMPDEST DUP3 DUP2 GT ISZERO PUSH2 0x790 JUMPI DUP3 MLOAD DUP3 SSTORE SWAP2 PUSH1 0x20 ADD SWAP2 SWAP1 PUSH1 0x1 ADD SWAP1 PUSH2 0x775 JUMP JUMPDEST JUMPDEST POP SWAP1 POP PUSH2 0x79E SWAP2 SWAP1 PUSH2 0x7A2 JUMP JUMPDEST POP SWAP1 JUMP JUMPDEST JUMPDEST DUP1 DUP3 GT ISZERO PUSH2 0x7BB JUMPI PUSH1 0x0 DUP2 PUSH1 0x0 SWAP1 SSTORE POP PUSH1 0x1 ADD PUSH2 0x7A3 JUMP JUMPDEST POP SWAP1 JUMP JUMPDEST PUSH1 0x0 PUSH1 0x40 MLOAD SWAP1 POP SWAP1 JUMP JUMPDEST PUSH1 0x0 DUP1 REVERT JUMPDEST PUSH1 0x0 DUP1 REVERT JUMPDEST PUSH1 0x0 DUP2 SWAP1 POP SWAP2 SWAP1 POP JUMP JUMPDEST PUSH2 0x7E6 DUP2 PUSH2 0x7D3 JUMP JUMPDEST DUP2 EQ PUSH2 0x7F1 JUMPI PUSH1 0x0 DUP1 REVERT JUMPDEST POP JUMP JUMPDEST PUSH1 0x0 DUP2 CALLDATALOAD SWAP1 POP PUSH2 0x803 DUP2 PUSH2 0x7DD JUMP JUMPDEST SWAP3 SWAP2 POP POP JUMP JUMPDEST PUSH1 0x0 PUSH1 0x20 DUP3 DUP5 SUB SLT ISZERO PUSH2 0x81F JUMPI PUSH2 0x81E PUSH2 0x7C9 JUMP JUMPDEST JUMPDEST PUSH1 0x0 PUSH2 0x82D DUP5 DUP3 DUP6 ADD PUSH2 0x7F4 JUMP JUMPDEST SWAP2 POP POP SWAP3 SWAP2 POP POP JUMP JUMPDEST PUSH1 0x0 PUSH20 0xFFFFFFFFFFFFFFFFFFFFFFFFFFFFFFFFFFFFFFFF DUP3 AND SWAP1 POP SWAP2 SWAP1 POP JUMP JUMPDEST PUSH1 0x0 PUSH2 0x861 DUP3 PUSH2 0x836 JUMP JUMPDEST SWAP1 POP SWAP2 SWAP1 POP JUMP JUMPDEST PUSH2 0x871 DUP2 PUSH2 0x856 JUMP JUMPDEST DUP2 EQ PUSH2 0x87C JUMPI PUSH1 0x0 DUP1 REVERT JUMPDEST POP JUMP JUMPDEST PUSH1 0x0 DUP2 CALLDATALOAD SWAP1 POP PUSH2 0x88E DUP2 PUSH2 0x868 JUMP JUMPDEST SWAP3 SWAP2 POP POP JUMP JUMPDEST PUSH1 0x0 PUSH1 0x20 DUP3 DUP5 SUB SLT ISZERO PUSH2 0x8AA JUMPI PUSH2 0x8A9 PUSH2 0x7C9 JUMP JUMPDEST JUMPDEST PUSH1 0x0 PUSH2 0x8B8 DUP5 DUP3 DUP6 ADD PUSH2 0x87F JUMP JUMPDEST SWAP2 POP POP SWAP3 SWAP2 POP POP JUMP JUMPDEST PUSH1 0x0 DUP2 ISZERO ISZERO SWAP1 POP SWAP2 SWAP1 POP JUMP JUMPDEST PUSH2 0x8D6 DUP2 PUSH2 0x8C1 JUMP JUMPDEST DUP3 MSTORE POP POP JUMP JUMPDEST PUSH1 0x0 PUSH1 0x20 DUP3 ADD SWAP1 POP PUSH2 0x8F1 PUSH1 0x0 DUP4 ADD DUP5 PUSH2 0x8CD JUMP JUMPDEST SWAP3 SWAP2 POP POP JUMP JUMPDEST PUSH2 0x900 DUP2 PUSH2 0x856 JUMP JUMPDEST DUP3 MSTORE POP POP JUMP JUMPDEST PUSH1 0x0 PUSH1 0x20 DUP3 ADD SWAP1 POP PUSH2 0x91B PUSH1 0x0 DUP4 ADD DUP5 PUSH2 0x8F7 JUMP JUMPDEST SWAP3 SWAP2 POP POP JUMP JUMPDEST PUSH1 0x0 DUP2 MLOAD SWAP1 POP SWAP2 SWAP1 POP JUMP JUMPDEST PUSH1 0x0 DUP3 DUP3 MSTORE PUSH1 0x20 DUP3 ADD SWAP1 POP SWAP3 SWAP2 POP POP JUMP JUMPDEST PUSH1 0x0 JUMPDEST DUP4 DUP2 LT ISZERO PUSH2 0x95B JUMPI DUP1 DUP3 ADD MLOAD DUP2 DUP5 ADD MSTORE PUSH1 0x20 DUP2 ADD SWAP1 POP PUSH2 0x940 JUMP JUMPDEST DUP4 DUP2 GT ISZERO PUSH2 0x96A JUMPI PUSH1 0x0 DUP5 DUP5 ADD MSTORE JUMPDEST POP POP POP POP JUMP JUMPDEST PUSH1 0x0 PUSH1 0x1F NOT PUSH1 0x1F DUP4 ADD AND SWAP1 POP SWAP2 SWAP1 POP JUMP JUMPDEST PUSH1 0x0 PUSH2 0x98C DUP3 PUSH2 0x921 JUMP JUMPDEST PUSH2 0x996 DUP2 DUP6 PUSH2 0x92C JUMP JUMPDEST SWAP4 POP PUSH2 0x9A6 DUP2 DUP6 PUSH1 0x20 DUP7 ADD PUSH2 0x93D JUMP JUMPDEST PUSH2 0x9AF DUP2 PUSH2 0x970 JUMP JUMPDEST DUP5 ADD SWAP2 POP POP SWAP3 SWAP2 POP POP JUMP JUMPDEST PUSH2 0x9C3 DUP2 PUSH2 0x7D3 JUMP JUMPDEST DUP3 MSTORE POP POP JUMP JUMPDEST PUSH1 0x0 PUSH2 0x9D4 DUP3 PUSH2 0x836 JUMP JUMPDEST SWAP1 POP SWAP2 SWAP1 POP JUMP JUMPDEST PUSH2 0x9E4 DUP2 PUSH2 0x9C9 JUMP JUMPDEST DUP3 MSTORE POP POP JUMP JUMPDEST PUSH1 0x0 PUSH1 0xA0 DUP3 ADD SWAP1 POP DUP2 DUP2 SUB PUSH1 0x0 DUP4 ADD MSTORE PUSH2 0xA04 DUP2 DUP9 PUSH2 0x981 JUMP JUMPDEST SWAP1 POP PUSH2 0xA13 PUSH1 0x20 DUP4 ADD DUP8 PUSH2 0x9BA JUMP JUMPDEST PUSH2 0xA20 PUSH1 0x40 DUP4 ADD DUP7 PUSH2 0x9DB JUMP JUMPDEST PUSH2 0xA2D PUSH1 0x60 DUP4 ADD DUP6 PUSH2 0x8CD JUMP JUMPDEST PUSH2 0xA3A PUSH1 0x80 DUP4 ADD DUP5 PUSH2 0x9BA JUMP JUMPDEST SWAP7 SWAP6 POP POP POP POP POP POP JUMP JUMPDEST PUSH1 0x0 DUP1 REVERT JUMPDEST PUSH1 0x0 DUP1 REVERT JUMPDEST PUSH32 0x4E487B7100000000000000000000000000000000000000000000000000000000 PUSH1 0x0 MSTORE PUSH1 0x41 PUSH1 0x4 MSTORE PUSH1 0x24 PUSH1 0x0 REVERT JUMPDEST PUSH2 0xA86 DUP3 PUSH2 0x970 JUMP JUMPDEST DUP2 ADD DUP2 DUP2 LT PUSH8 0xFFFFFFFFFFFFFFFF DUP3 GT OR ISZERO PUSH2 0xAA5 JUMPI PUSH2 0xAA4 PUSH2 0xA4E JUMP JUMPDEST JUMPDEST DUP1 PUSH1 0x40 MSTORE POP POP POP JUMP JUMPDEST PUSH1 0x0 PUSH2 0xAB8 PUSH2 0x7BF JUMP JUMPDEST SWAP1 POP PUSH2 0xAC4 DUP3 DUP3 PUSH2 0xA7D JUMP JUMPDEST SWAP2 SWAP1 POP JUMP JUMPDEST PUSH1 0x0 PUSH8 0xFFFFFFFFFFFFFFFF DUP3 GT ISZERO PUSH2 0xAE4 JUMPI PUSH2 0xAE3 PUSH2 0xA4E JUMP JUMPDEST JUMPDEST PUSH2 0xAED DUP3 PUSH2 0x970 JUMP JUMPDEST SWAP1 POP PUSH1 0x20 DUP2 ADD SWAP1 POP SWAP2 SWAP1 POP JUMP JUMPDEST DUP3 DUP2 DUP4 CALLDATACOPY PUSH1 0x0 DUP4 DUP4 ADD MSTORE POP POP POP JUMP JUMPDEST PUSH1 0x0 PUSH2 0xB1C PUSH2 0xB17 DUP5 PUSH2 0xAC9 JUMP JUMPDEST PUSH2 0xAAE JUMP JUMPDEST SWAP1 POP DUP3 DUP2 MSTORE PUSH1 0x20 DUP2 ADD DUP5 DUP5 DUP5 ADD GT ISZERO PUSH2 0xB38 JUMPI PUSH2 0xB37 PUSH2 0xA49 JUMP JUMPDEST JUMPDEST PUSH2 0xB43 DUP5 DUP3 DUP6 PUSH2 0xAFA JUMP JUMPDEST POP SWAP4 SWAP3 POP POP POP JUMP JUMPDEST PUSH1 0x0 DUP3 PUSH1 0x1F DUP4 ADD SLT PUSH2 0xB60 JUMPI PUSH2 0xB5F PUSH2 0xA44 JUMP JUMPDEST JUMPDEST DUP2 CALLDATALOAD PUSH2 0xB70 DUP5 DUP3 PUSH1 0x20 DUP7 ADD PUSH2 0xB09 JUMP JUMPDEST SWAP2 POP POP SWAP3 SWAP2 POP POP JUMP JUMPDEST PUSH2 0xB82 DUP2 PUSH2 0x9C9 JUMP JUMPDEST DUP2 EQ PUSH2 0xB8D JUMPI PUSH1 0x0 DUP1 REVERT JUMPDEST POP JUMP JUMPDEST PUSH1 0x0 DUP2 CALLDATALOAD SWAP1 POP PUSH2 0xB9F DUP2 PUSH2 0xB79 JUMP JUMPDEST SWAP3 SWAP2 POP POP JUMP JUMPDEST PUSH1 0x0 DUP1 PUSH1 0x0 PUSH1 0x60 DUP5 DUP7 SUB SLT ISZERO PUSH2 0xBBE JUMPI PUSH2 0xBBD PUSH2 0x7C9 JUMP JUMPDEST JUMPDEST PUSH1 0x0 DUP5 ADD CALLDATALOAD PUSH8 0xFFFFFFFFFFFFFFFF DUP2 GT ISZERO PUSH2 0xBDC JUMPI PUSH2 0xBDB PUSH2 0x7CE JUMP JUMPDEST JUMPDEST PUSH2 0xBE8 DUP7 DUP3 DUP8 ADD PUSH2 0xB4B JUMP JUMPDEST SWAP4 POP POP PUSH1 0x20 PUSH2 0xBF9 DUP7 DUP3 DUP8 ADD PUSH2 0x7F4 JUMP JUMPDEST SWAP3 POP POP PUSH1 0x40 PUSH2 0xC0A DUP7 DUP3 DUP8 ADD PUSH2 0xB90 JUMP JUMPDEST SWAP2 POP POP SWAP3 POP SWAP3 POP SWAP3 JUMP JUMPDEST PUSH1 0x0 PUSH1 0x20 DUP3 ADD SWAP1 POP PUSH2 0xC29 PUSH1 0x0 DUP4 ADD DUP5 PUSH2 0x9BA JUMP JUMPDEST SWAP3 SWAP2 POP POP JUMP JUMPDEST PUSH32 0x4E487B7100000000000000000000000000000000000000000000000000000000 PUSH1 0x0 MSTORE PUSH1 0x12 PUSH1 0x4 MSTORE PUSH1 0x24 PUSH1 0x0 REVERT JUMPDEST PUSH32 0x4E487B7100000000000000000000000000000000000000000000000000000000 PUSH1 0x0 MSTORE PUSH1 0x11 PUSH1 0x4 MSTORE PUSH1 0x24 PUSH1 0x0 REVERT JUMPDEST PUSH1 0x0 PUSH2 0xC98 DUP3 PUSH2 0x7D3 JUMP JUMPDEST SWAP2 POP PUSH2 0xCA3 DUP4 PUSH2 0x7D3 JUMP JUMPDEST SWAP3 POP DUP3 PUSH2 0xCB3 JUMPI PUSH2 0xCB2 PUSH2 0xC2F JUMP JUMPDEST JUMPDEST DUP3 DUP3 DIV SWAP1 POP SWAP3 SWAP2 POP POP JUMP JUMPDEST PUSH32 0x4E487B7100000000000000000000000000000000000000000000000000000000 PUSH1 0x0 MSTORE PUSH1 0x22 PUSH1 0x4 MSTORE PUSH1 0x24 PUSH1 0x0 REVERT JUMPDEST PUSH1 0x0 PUSH1 0x2 DUP3 DIV SWAP1 POP PUSH1 0x1 DUP3 AND DUP1 PUSH2 0xD05 JUMPI PUSH1 0x7F DUP3 AND SWAP2 POP JUMPDEST PUSH1 0x20 DUP3 LT DUP2 EQ ISZERO PUSH2 0xD19 JUMPI PUSH2 0xD18 PUSH2 0xCBE JUMP JUMPDEST JUMPDEST POP SWAP2 SWAP1 POP JUMP JUMPDEST PUSH1 0x0 PUSH2 0xD2A DUP3 PUSH2 0x7D3 JUMP JUMPDEST SWAP2 POP PUSH32 0xFFFFFFFFFFFFFFFFFFFFFFFFFFFFFFFFFFFFFFFFFFFFFFFFFFFFFFFFFFFFFFFF DUP3 EQ ISZERO PUSH2 0xD5D JUMPI PUSH2 0xD5C PUSH2 0xC5E JUMP JUMPDEST JUMPDEST PUSH1 0x1 DUP3 ADD SWAP1 POP SWAP2 SWAP1 POP JUMP INVALID LOG2 PUSH5 0x6970667358 0x22 SLT KECCAK256 0xCE SWAP3 0xFC 0xEC 0xAB PUSH4 0xFE68714C 0xDB GT 0xBC 0xB5 LOG3 ADDMOD 0xAE EXTCODEHASH LOG3 MLOAD PUSH23 0x31FA1695532CF3AA049B8A64736F6C634300080B003300 "},"gasEstimates":{"creation":{"codeDepositCost":"697200","executionCost":"infinite","totalCost":"infinite"},"external":{"approveRequest(uint256)":"infinite","approvers(address)":"2868","contribute()":"51002","createRequest(string,uint256,address)":"infinite","finalizeRequest(uint256)":"infinite","manager()":"2556","minimumContribution()":"2451","requests(uint256)":"infinite"}},"methodIdentifiers":{"approveRequest(uint256)":"d7d1bbdb","approvers(address)":"0a144391","contribute()":"d7bb99ba","createRequest(string,uint256,address)":"8a9cfd55","finalizeRequest(uint256)":"03441006","manager()":"481c6a75","minimumContribution()":"937e09b1","requests(uint256)":"81d12c58"}},"storageLayout":{"storage":[{"astId":56,"contract":"Campaign.sol:Campaign","label":"manager","offset":0,"slot":"0","type":"t_address"},{"astId":58,"contract":"Campaign.sol:Campaign","label":"minimumContribution","offset":0,"slot":"1","type":"t_uint256"},{"astId":60,"contract":"Campaign.sol:Campaign","label":"numRequests","offset":0,"slot":"2","type":"t_uint256"},{"astId":62,"contract":"Campaign.sol:Campaign","label":"approversCount","offset":0,"slot":"3","type":"t_uint256"},{"astId":67,"contract":"Campaign.sol:Campaign","label":"requests","offset":0,"slot":"4","type":"t_mapping(t_uint256,t_struct(Request)54_storage)"},{"astId":71,"contract":"Campaign.sol:Campaign","label":"approvers","offset":0,"slot":"5","type":"t_mapping(t_address,t_bool)"}],"types":{"t_address":{"encoding":"inplace","label":"address","numberOfBytes":"20"},"t_address_payable":{"encoding":"inplace","label":"address payable","numberOfBytes":"20"},"t_bool":{"encoding":"inplace","label":"bool","numberOfBytes":"1"},"t_mapping(t_address,t_bool)":{"encoding":"mapping","key":"t_address","label":"mapping(address => bool)","numberOfBytes":"32","value":"t_bool"},"t_mapping(t_uint256,t_struct(Request)54_storage)":{"encoding":"mapping","key":"t_uint256","label":"mapping(uint256 => struct Campaign.Request)","numberOfBytes":"32","value":"t_struct(Request)54_storage"},"t_string_storage":{"encoding":"bytes","label":"string","numberOfBytes":"32"},"t_struct(Request)54_storage":{"encoding":"inplace","label":"struct Campaign.Request","members":[{"astId":41,"contract":"Campaign.sol:Campaign","label":"description","offset":0,"slot":"0","type":"t_string_storage"},{"astId":43,"contract":"Campaign.sol:Campaign","label":"value","offset":0,"slot":"1","type":"t_uint256"},{"astId":45,"contract":"Campaign.sol:Campaign","label":"recipient","offset":0,"slot":"2","type":"t_address_payable"},{"astId":47,"contract":"Campaign.sol:Campaign","label":"complete","offset":20,"slot":"2","type":"t_bool"},{"astId":49,"contract":"Campaign.sol:Campaign","label":"approvalCount","offset":0,"slot":"3","type":"t_uint256"},{"astId":53,"contract":"Campaign.sol:Campaign","label":"approvals","offset":0,"slot":"4","type":"t_mapping(t_address,t_bool)"}],"numberOfBytes":"160"},"t_uint256":{"encoding":"inplace","label":"uint256","numberOfBytes":"32"}}},"userdoc":{"kind":"user","methods":{},"version":1}}